{
  "_format": "hh-sol-artifact-1",
  "contractName": "MergeParty",
  "sourceName": "contracts/MergeParty.sol",
  "abi": [
    {
      "inputs": [],
      "stateMutability": "nonpayable",
      "type": "constructor"
    },
    {
      "anonymous": false,
      "inputs": [
        {
          "indexed": true,
          "internalType": "address",
          "name": "owner",
          "type": "address"
        },
        {
          "indexed": true,
          "internalType": "address",
          "name": "approved",
          "type": "address"
        },
        {
          "indexed": true,
          "internalType": "uint256",
          "name": "tokenId",
          "type": "uint256"
        }
      ],
      "name": "Approval",
      "type": "event"
    },
    {
      "anonymous": false,
      "inputs": [
        {
          "indexed": true,
          "internalType": "address",
          "name": "owner",
          "type": "address"
        },
        {
          "indexed": true,
          "internalType": "address",
          "name": "operator",
          "type": "address"
        },
        {
          "indexed": false,
          "internalType": "bool",
          "name": "approved",
          "type": "bool"
        }
      ],
      "name": "ApprovalForAll",
      "type": "event"
    },
    {
      "anonymous": false,
      "inputs": [
        {
          "indexed": true,
          "internalType": "uint256",
          "name": "index",
          "type": "uint256"
        },
        {
          "indexed": false,
          "internalType": "address",
          "name": "account",
          "type": "address"
        },
        {
          "indexed": false,
          "internalType": "uint256",
          "name": "tokenId",
          "type": "uint256"
        }
      ],
      "name": "Claimed",
      "type": "event"
    },
    {
      "anonymous": false,
      "inputs": [
        {
          "indexed": true,
          "internalType": "address",
          "name": "previousOwner",
          "type": "address"
        },
        {
          "indexed": true,
          "internalType": "address",
          "name": "newOwner",
          "type": "address"
        }
      ],
      "name": "OwnershipTransferred",
      "type": "event"
    },
    {
      "anonymous": false,
      "inputs": [
        {
          "indexed": true,
          "internalType": "address",
          "name": "from",
          "type": "address"
        },
        {
          "indexed": true,
          "internalType": "address",
          "name": "to",
          "type": "address"
        },
        {
          "indexed": true,
          "internalType": "uint256",
          "name": "tokenId",
          "type": "uint256"
        }
      ],
      "name": "Transfer",
      "type": "event"
    },
    {
      "inputs": [],
      "name": "MergeWatchParty",
      "outputs": [
        {
          "internalType": "address",
          "name": "",
          "type": "address"
        }
      ],
      "stateMutability": "view",
      "type": "function"
    },
    {
      "inputs": [
        {
          "internalType": "address",
          "name": "to",
          "type": "address"
        },
        {
          "internalType": "uint256",
          "name": "tokenId",
          "type": "uint256"
        }
      ],
      "name": "approve",
      "outputs": [],
      "stateMutability": "nonpayable",
      "type": "function"
    },
    {
      "inputs": [
        {
          "internalType": "address",
          "name": "owner",
          "type": "address"
        }
      ],
      "name": "balanceOf",
      "outputs": [
        {
          "internalType": "uint256",
          "name": "",
          "type": "uint256"
        }
      ],
      "stateMutability": "view",
      "type": "function"
    },
    {
      "inputs": [
        {
          "internalType": "uint256",
          "name": "index",
          "type": "uint256"
        },
        {
          "internalType": "address",
          "name": "account",
          "type": "address"
        },
        {
          "internalType": "bytes32[]",
          "name": "merkleProof",
          "type": "bytes32[]"
        }
      ],
      "name": "claim",
      "outputs": [],
      "stateMutability": "nonpayable",
      "type": "function"
    },
    {
      "inputs": [],
      "name": "counters",
      "outputs": [
        {
          "internalType": "uint256",
          "name": "_value",
          "type": "uint256"
        }
      ],
      "stateMutability": "view",
      "type": "function"
    },
    {
      "inputs": [
        {
          "internalType": "uint256",
          "name": "tokenId",
          "type": "uint256"
        }
      ],
      "name": "getApproved",
      "outputs": [
        {
          "internalType": "address",
          "name": "",
          "type": "address"
        }
      ],
      "stateMutability": "view",
      "type": "function"
    },
    {
      "inputs": [
        {
          "internalType": "bytes32",
          "name": "_merkleRoot",
          "type": "bytes32"
        },
        {
          "internalType": "string",
          "name": "_messageboard",
          "type": "string"
        }
      ],
      "name": "initializeEvent",
      "outputs": [],
      "stateMutability": "nonpayable",
      "type": "function"
    },
    {
      "inputs": [
        {
          "internalType": "address",
          "name": "owner",
          "type": "address"
        },
        {
          "internalType": "address",
          "name": "operator",
          "type": "address"
        }
      ],
      "name": "isApprovedForAll",
      "outputs": [
        {
          "internalType": "bool",
          "name": "",
          "type": "bool"
        }
      ],
      "stateMutability": "view",
      "type": "function"
    },
    {
      "inputs": [
        {
          "internalType": "uint256",
          "name": "index",
          "type": "uint256"
        }
      ],
      "name": "isClaimed",
      "outputs": [
        {
          "internalType": "bool",
          "name": "",
          "type": "bool"
        }
      ],
      "stateMutability": "view",
      "type": "function"
    },
    {
      "inputs": [],
      "name": "merkleRoot",
      "outputs": [
        {
          "internalType": "bytes32",
          "name": "",
          "type": "bytes32"
        }
      ],
      "stateMutability": "view",
      "type": "function"
    },
    {
      "inputs": [],
      "name": "messageBoard",
      "outputs": [
        {
          "internalType": "string",
          "name": "",
          "type": "string"
        }
      ],
      "stateMutability": "view",
      "type": "function"
    },
    {
      "inputs": [],
      "name": "name",
      "outputs": [
        {
          "internalType": "string",
          "name": "",
          "type": "string"
        }
      ],
      "stateMutability": "view",
      "type": "function"
    },
    {
      "inputs": [],
      "name": "owner",
      "outputs": [
        {
          "internalType": "address",
          "name": "",
          "type": "address"
        }
      ],
      "stateMutability": "view",
      "type": "function"
    },
    {
      "inputs": [
        {
          "internalType": "uint256",
          "name": "tokenId",
          "type": "uint256"
        }
      ],
      "name": "ownerOf",
      "outputs": [
        {
          "internalType": "address",
          "name": "",
          "type": "address"
        }
      ],
      "stateMutability": "view",
      "type": "function"
    },
    {
      "inputs": [],
      "name": "receiver",
      "outputs": [
        {
          "internalType": "address",
          "name": "",
          "type": "address"
        }
      ],
      "stateMutability": "view",
      "type": "function"
    },
    {
      "inputs": [],
      "name": "renounceOwnership",
      "outputs": [],
      "stateMutability": "nonpayable",
      "type": "function"
    },
    {
      "inputs": [
        {
          "internalType": "string",
          "name": "_baseUri",
          "type": "string"
        }
      ],
      "name": "resetBaseUri",
      "outputs": [],
      "stateMutability": "nonpayable",
      "type": "function"
    },
    {
      "inputs": [
        {
          "internalType": "address",
          "name": "from",
          "type": "address"
        },
        {
          "internalType": "address",
          "name": "to",
          "type": "address"
        },
        {
          "internalType": "uint256",
          "name": "tokenId",
          "type": "uint256"
        }
      ],
      "name": "safeTransferFrom",
      "outputs": [],
      "stateMutability": "nonpayable",
      "type": "function"
    },
    {
      "inputs": [
        {
          "internalType": "address",
          "name": "from",
          "type": "address"
        },
        {
          "internalType": "address",
          "name": "to",
          "type": "address"
        },
        {
          "internalType": "uint256",
          "name": "tokenId",
          "type": "uint256"
        },
        {
          "internalType": "bytes",
          "name": "data",
          "type": "bytes"
        }
      ],
      "name": "safeTransferFrom",
      "outputs": [],
      "stateMutability": "nonpayable",
      "type": "function"
    },
    {
      "inputs": [
        {
          "internalType": "address",
          "name": "operator",
          "type": "address"
        },
        {
          "internalType": "bool",
          "name": "approved",
          "type": "bool"
        }
      ],
      "name": "setApprovalForAll",
      "outputs": [],
      "stateMutability": "nonpayable",
      "type": "function"
    },
    {
      "inputs": [
        {
          "internalType": "bytes4",
          "name": "interfaceId",
          "type": "bytes4"
        }
      ],
      "name": "supportsInterface",
      "outputs": [
        {
          "internalType": "bool",
          "name": "",
          "type": "bool"
        }
      ],
      "stateMutability": "view",
      "type": "function"
    },
    {
      "inputs": [],
      "name": "symbol",
      "outputs": [
        {
          "internalType": "string",
          "name": "",
          "type": "string"
        }
      ],
      "stateMutability": "view",
      "type": "function"
    },
    {
      "inputs": [
        {
          "internalType": "uint256",
          "name": "tokenId",
          "type": "uint256"
        }
      ],
      "name": "tokenURI",
      "outputs": [
        {
          "internalType": "string",
          "name": "",
          "type": "string"
        }
      ],
      "stateMutability": "view",
      "type": "function"
    },
    {
      "inputs": [
        {
          "internalType": "address",
          "name": "from",
          "type": "address"
        },
        {
          "internalType": "address",
          "name": "to",
          "type": "address"
        },
        {
          "internalType": "uint256",
          "name": "tokenId",
          "type": "uint256"
        }
      ],
      "name": "transferFrom",
      "outputs": [],
      "stateMutability": "nonpayable",
      "type": "function"
    },
    {
      "inputs": [
        {
          "internalType": "address",
          "name": "newOwner",
          "type": "address"
        }
      ],
      "name": "transferOwnership",
      "outputs": [],
      "stateMutability": "nonpayable",
      "type": "function"
    },
    {
      "inputs": [
        {
          "internalType": "address",
          "name": "account",
          "type": "address"
        }
      ],
      "name": "urMessages",
      "outputs": [
        {
          "internalType": "string",
          "name": "",
          "type": "string"
        }
      ],
      "stateMutability": "view",
      "type": "function"
    }
  ],
  "bytecode": "0x60806040523480156200001157600080fd5b506040518060400160405280601881526020017f4d657267655061727479204d65737361676573426f61726400000000000000008152506040518060400160405280600881526020017f4554484769667473000000000000000000000000000000000000000000000000815250816000908051906020019062000096929190620001a6565b508060019080519060200190620000af929190620001a6565b505050620000d2620000c6620000d860201b60201c565b620000e060201b60201c565b620002ba565b600033905090565b6000600660009054906101000a900473ffffffffffffffffffffffffffffffffffffffff16905081600660006101000a81548173ffffffffffffffffffffffffffffffffffffffff021916908373ffffffffffffffffffffffffffffffffffffffff1602179055508173ffffffffffffffffffffffffffffffffffffffff168173ffffffffffffffffffffffffffffffffffffffff167f8be0079c531659141344cd1fd0a4f28419497f9722a3daafe3b4186f6b6457e060405160405180910390a35050565b828054620001b49062000285565b90600052602060002090601f016020900481019282620001d8576000855562000224565b82601f10620001f357805160ff191683800117855562000224565b8280016001018555821562000224579182015b828111156200022357825182559160200191906001019062000206565b5b50905062000233919062000237565b5090565b5b808211156200025257600081600090555060010162000238565b5090565b7f4e487b7100000000000000000000000000000000000000000000000000000000600052602260045260246000fd5b600060028204905060018216806200029e57607f821691505b602082108103620002b457620002b362000256565b5b50919050565b61347880620002ca6000396000f3fe608060405234801561001057600080fd5b506004361061018e5760003560e01c80638da5cb5b116100de578063d771284511610097578063f2fde38b11610071578063f2fde38b14610495578063f7210633146104b1578063f7260d3e146104cf578063f72d82cf146104ed5761018e565b8063d77128451461042b578063e985e9c514610447578063eda81039146104775761018e565b80638da5cb5b1461035757806395d89b41146103755780639e34070f14610393578063a22cb465146103c3578063b88d4fde146103df578063c87b56dd146103fb5761018e565b80633f3982601161014b578063660714d011610125578063660714d0146102d157806370a0823114610301578063715018a6146103315780637b4ae4ad1461033b5761018e565b80633f3982601461026757806342842e0e146102855780636352211e146102a15761018e565b806301ffc9a71461019357806306fdde03146101c3578063081812fc146101e1578063095ea7b31461021157806323b872dd1461022d5780632eb4a7ab14610249575b600080fd5b6101ad60048036038101906101a89190611f3d565b610509565b6040516101ba9190611f85565b60405180910390f35b6101cb6105eb565b6040516101d89190612039565b60405180910390f35b6101fb60048036038101906101f69190612091565b61067d565b60405161020891906120ff565b60405180910390f35b61022b60048036038101906102269190612146565b6106c3565b005b61024760048036038101906102429190612186565b6107da565b005b61025161083a565b60405161025e91906121f2565b60405180910390f35b61026f610840565b60405161027c91906120ff565b60405180910390f35b61029f600480360381019061029a9190612186565b610858565b005b6102bb60048036038101906102b69190612091565b610878565b6040516102c891906120ff565b60405180910390f35b6102eb60048036038101906102e6919061220d565b610929565b6040516102f89190612039565b60405180910390f35b61031b6004803603810190610316919061220d565b6109c5565b6040516103289190612249565b60405180910390f35b610339610a7c565b005b61035560048036038101906103509190612399565b610a90565b005b61035f610af6565b60405161036c91906120ff565b60405180910390f35b61037d610b20565b60405161038a9190612039565b60405180910390f35b6103ad60048036038101906103a89190612091565b610bb2565b6040516103ba9190611f85565b60405180910390f35b6103dd60048036038101906103d8919061240e565b610c08565b005b6103f960048036038101906103f491906124ef565b610c1e565b005b61041560048036038101906104109190612091565b610c80565b6040516104229190612039565b60405180910390f35b6104456004803603810190610440919061259e565b610cbf565b005b610461600480360381019061045c91906125fa565b610d30565b60405161046e9190611f85565b60405180910390f35b61047f610dc4565b60405161048c9190612039565b60405180910390f35b6104af60048036038101906104aa919061220d565b610e52565b005b6104b9610ed5565b6040516104c69190612249565b60405180910390f35b6104d7610ee1565b6040516104e491906120ff565b60405180910390f35b6105076004803603810190610502919061269a565b610f07565b005b60007f80ac58cd000000000000000000000000000000000000000000000000000000007bffffffffffffffffffffffffffffffffffffffffffffffffffffffff1916827bffffffffffffffffffffffffffffffffffffffffffffffffffffffff191614806105d457507f5b5e139f000000000000000000000000000000000000000000000000000000007bffffffffffffffffffffffffffffffffffffffffffffffffffffffff1916827bffffffffffffffffffffffffffffffffffffffffffffffffffffffff1916145b806105e457506105e382611080565b5b9050919050565b6060600080546105fa9061273d565b80601f01602080910402602001604051908101604052809291908181526020018280546106269061273d565b80156106735780601f1061064857610100808354040283529160200191610673565b820191906000526020600020905b81548152906001019060200180831161065657829003601f168201915b5050505050905090565b6000610688826110ea565b6004600083815260200190815260200160002060009054906101000a900473ffffffffffffffffffffffffffffffffffffffff169050919050565b60006106ce82610878565b90508073ffffffffffffffffffffffffffffffffffffffff168373ffffffffffffffffffffffffffffffffffffffff160361073e576040517f08c379a0000000000000000000000000000000000000000000000000000000008152600401610735906127e0565b60405180910390fd5b8073ffffffffffffffffffffffffffffffffffffffff1661075d611135565b73ffffffffffffffffffffffffffffffffffffffff16148061078c575061078b81610786611135565b610d30565b5b6107cb576040517f08c379a00000000000000000000000000000000000000000000000000000000081526004016107c290612872565b60405180910390fd5b6107d5838361113d565b505050565b6107eb6107e5611135565b826111f6565b61082a576040517f08c379a000000000000000000000000000000000000000000000000000000000815260040161082190612904565b60405180910390fd5b61083583838361128b565b505050565b60085481565b73333c0d9e898fa551d8f9d07f4cef095c6319d4a681565b61087383838360405180602001604052806000815250610c1e565b505050565b6000806002600084815260200190815260200160002060009054906101000a900473ffffffffffffffffffffffffffffffffffffffff169050600073ffffffffffffffffffffffffffffffffffffffff168173ffffffffffffffffffffffffffffffffffffffff1603610920576040517f08c379a000000000000000000000000000000000000000000000000000000000815260040161091790612970565b60405180910390fd5b80915050919050565b606073333c0d9e898fa551d8f9d07f4cef095c6319d4a673ffffffffffffffffffffffffffffffffffffffff166363a9a335836040518263ffffffff1660e01b815260040161097891906120ff565b600060405180830381865afa158015610995573d6000803e3d6000fd5b505050506040513d6000823e3d601f19601f820116820180604052508101906109be9190612a00565b9050919050565b60008073ffffffffffffffffffffffffffffffffffffffff168273ffffffffffffffffffffffffffffffffffffffff1603610a35576040517f08c379a0000000000000000000000000000000000000000000000000000000008152600401610a2c90612abb565b60405180910390fd5b600360008373ffffffffffffffffffffffffffffffffffffffff1673ffffffffffffffffffffffffffffffffffffffff168152602001908152602001600020549050919050565b610a846114f1565b610a8e600061156f565b565b610a986114f1565b6000815103610adc576040517f08c379a0000000000000000000000000000000000000000000000000000000008152600401610ad390612b27565b60405180910390fd5b80600a9080519060200190610af2929190611e2e565b5050565b6000600660009054906101000a900473ffffffffffffffffffffffffffffffffffffffff16905090565b606060018054610b2f9061273d565b80601f0160208091040260200160405190810160405280929190818152602001828054610b5b9061273d565b8015610ba85780601f10610b7d57610100808354040283529160200191610ba8565b820191906000526020600020905b815481529060010190602001808311610b8b57829003601f168201915b5050505050905090565b60008061010083610bc39190612ba5565b9050600061010084610bd59190612bd6565b90506000600b60008481526020019081526020016000205490506000826001901b90508081831614945050505050919050565b610c1a610c13611135565b8383611635565b5050565b610c2f610c29611135565b836111f6565b610c6e576040517f08c379a0000000000000000000000000000000000000000000000000000000008152600401610c6590612904565b60405180910390fd5b610c7a848484846117a1565b50505050565b6060610c8b826110ea565b6000610c956117fd565b90506000815111610cb55760405180602001604052806000815250610cb7565b805b915050919050565b610cc76114f1565b6000602060ff1603610d0e576040517f08c379a0000000000000000000000000000000000000000000000000000000008152600401610d0590612c79565b60405180910390fd5b80600a9080519060200190610d24929190611e2e565b50816008819055505050565b6000600560008473ffffffffffffffffffffffffffffffffffffffff1673ffffffffffffffffffffffffffffffffffffffff16815260200190815260200160002060008373ffffffffffffffffffffffffffffffffffffffff1673ffffffffffffffffffffffffffffffffffffffff16815260200190815260200160002060009054906101000a900460ff16905092915050565b600a8054610dd19061273d565b80601f0160208091040260200160405190810160405280929190818152602001828054610dfd9061273d565b8015610e4a5780601f10610e1f57610100808354040283529160200191610e4a565b820191906000526020600020905b815481529060010190602001808311610e2d57829003601f168201915b505050505081565b610e5a6114f1565b600073ffffffffffffffffffffffffffffffffffffffff168173ffffffffffffffffffffffffffffffffffffffff1603610ec9576040517f08c379a0000000000000000000000000000000000000000000000000000000008152600401610ec090612d0b565b60405180910390fd5b610ed28161156f565b50565b60078060000154905081565b600960009054906101000a900473ffffffffffffffffffffffffffffffffffffffff1681565b610f1084610bb2565b15610f50576040517f08c379a0000000000000000000000000000000000000000000000000000000008152600401610f4790612d9d565b60405180910390fd5b6000600190506000858583604051602001610f6d93929190612e26565b604051602081830303815290604052805190602001209050610fd3848480806020026020016040519081016040528093929190818152602001838360200280828437600081840152601f19601f820116905080830192505050505050506008548361188f565b611012576040517f08c379a000000000000000000000000000000000000000000000000000000000815260040161100990612eaf565b60405180910390fd5b61101b866118a6565b60006110276007611900565b9050611033600761190e565b61103d8682611924565b867f4ec90e965519d92681267467f775ada5bd214aa92c0dc93d90a5e880ce9ed026878360405161106f929190612ecf565b60405180910390a250505050505050565b60007f01ffc9a7000000000000000000000000000000000000000000000000000000007bffffffffffffffffffffffffffffffffffffffffffffffffffffffff1916827bffffffffffffffffffffffffffffffffffffffffffffffffffffffff1916149050919050565b6110f381611942565b611132576040517f08c379a000000000000000000000000000000000000000000000000000000000815260040161112990612970565b60405180910390fd5b50565b600033905090565b816004600083815260200190815260200160002060006101000a81548173ffffffffffffffffffffffffffffffffffffffff021916908373ffffffffffffffffffffffffffffffffffffffff160217905550808273ffffffffffffffffffffffffffffffffffffffff166111b083610878565b73ffffffffffffffffffffffffffffffffffffffff167f8c5be1e5ebec7d5bd14f71427d1e84f3dd0314c0f7b2291e5b200ac8c7c3b92560405160405180910390a45050565b60008061120283610878565b90508073ffffffffffffffffffffffffffffffffffffffff168473ffffffffffffffffffffffffffffffffffffffff16148061124457506112438185610d30565b5b8061128257508373ffffffffffffffffffffffffffffffffffffffff1661126a8461067d565b73ffffffffffffffffffffffffffffffffffffffff16145b91505092915050565b8273ffffffffffffffffffffffffffffffffffffffff166112ab82610878565b73ffffffffffffffffffffffffffffffffffffffff1614611301576040517f08c379a00000000000000000000000000000000000000000000000000000000081526004016112f890612f6a565b60405180910390fd5b600073ffffffffffffffffffffffffffffffffffffffff168273ffffffffffffffffffffffffffffffffffffffff1603611370576040517f08c379a000000000000000000000000000000000000000000000000000000000815260040161136790612ffc565b60405180910390fd5b61137b8383836119ae565b61138660008261113d565b6001600360008573ffffffffffffffffffffffffffffffffffffffff1673ffffffffffffffffffffffffffffffffffffffff16815260200190815260200160002060008282546113d6919061301c565b925050819055506001600360008473ffffffffffffffffffffffffffffffffffffffff1673ffffffffffffffffffffffffffffffffffffffff168152602001908152602001600020600082825461142d9190613050565b92505081905550816002600083815260200190815260200160002060006101000a81548173ffffffffffffffffffffffffffffffffffffffff021916908373ffffffffffffffffffffffffffffffffffffffff160217905550808273ffffffffffffffffffffffffffffffffffffffff168473ffffffffffffffffffffffffffffffffffffffff167fddf252ad1be2c89b69c2b068fc378daa952ba7f163c4a11628f55a4df523b3ef60405160405180910390a46114ec8383836119b3565b505050565b6114f9611135565b73ffffffffffffffffffffffffffffffffffffffff16611517610af6565b73ffffffffffffffffffffffffffffffffffffffff161461156d576040517f08c379a0000000000000000000000000000000000000000000000000000000008152600401611564906130f2565b60405180910390fd5b565b6000600660009054906101000a900473ffffffffffffffffffffffffffffffffffffffff16905081600660006101000a81548173ffffffffffffffffffffffffffffffffffffffff021916908373ffffffffffffffffffffffffffffffffffffffff1602179055508173ffffffffffffffffffffffffffffffffffffffff168173ffffffffffffffffffffffffffffffffffffffff167f8be0079c531659141344cd1fd0a4f28419497f9722a3daafe3b4186f6b6457e060405160405180910390a35050565b8173ffffffffffffffffffffffffffffffffffffffff168373ffffffffffffffffffffffffffffffffffffffff16036116a3576040517f08c379a000000000000000000000000000000000000000000000000000000000815260040161169a9061315e565b60405180910390fd5b80600560008573ffffffffffffffffffffffffffffffffffffffff1673ffffffffffffffffffffffffffffffffffffffff16815260200190815260200160002060008473ffffffffffffffffffffffffffffffffffffffff1673ffffffffffffffffffffffffffffffffffffffff16815260200190815260200160002060006101000a81548160ff0219169083151502179055508173ffffffffffffffffffffffffffffffffffffffff168373ffffffffffffffffffffffffffffffffffffffff167f17307eab39ab6107e8899845ad3d59bd9653f200f220920489ca2b5937696c31836040516117949190611f85565b60405180910390a3505050565b6117ac84848461128b565b6117b8848484846119b8565b6117f7576040517f08c379a00000000000000000000000000000000000000000000000000000000081526004016117ee906131f0565b60405180910390fd5b50505050565b6060600a805461180c9061273d565b80601f01602080910402602001604051908101604052809291908181526020018280546118389061273d565b80156118855780601f1061185a57610100808354040283529160200191611885565b820191906000526020600020905b81548152906001019060200180831161186857829003601f168201915b5050505050905090565b60008261189c8584611b3f565b1490509392505050565b6000610100826118b69190612ba5565b90506000610100836118c89190612bd6565b9050806001901b600b60008481526020019081526020016000205417600b600084815260200190815260200160002081905550505050565b600081600001549050919050565b6001816000016000828254019250508190555050565b61193e828260405180602001604052806000815250611b95565b5050565b60008073ffffffffffffffffffffffffffffffffffffffff166002600084815260200190815260200160002060009054906101000a900473ffffffffffffffffffffffffffffffffffffffff1673ffffffffffffffffffffffffffffffffffffffff1614159050919050565b505050565b505050565b60006119d98473ffffffffffffffffffffffffffffffffffffffff16611bf0565b15611b32578373ffffffffffffffffffffffffffffffffffffffff1663150b7a02611a02611135565b8786866040518563ffffffff1660e01b8152600401611a249493929190613265565b6020604051808303816000875af1925050508015611a6057506040513d601f19601f82011682018060405250810190611a5d91906132c6565b60015b611ae2573d8060008114611a90576040519150601f19603f3d011682016040523d82523d6000602084013e611a95565b606091505b506000815103611ada576040517f08c379a0000000000000000000000000000000000000000000000000000000008152600401611ad1906131f0565b60405180910390fd5b805181602001fd5b63150b7a0260e01b7bffffffffffffffffffffffffffffffffffffffffffffffffffffffff1916817bffffffffffffffffffffffffffffffffffffffffffffffffffffffff191614915050611b37565b600190505b949350505050565b60008082905060005b8451811015611b8a57611b7582868381518110611b6857611b676132f3565b5b6020026020010151611c13565b91508080611b8290613322565b915050611b48565b508091505092915050565b611b9f8383611c3e565b611bac60008484846119b8565b611beb576040517f08c379a0000000000000000000000000000000000000000000000000000000008152600401611be2906131f0565b60405180910390fd5b505050565b6000808273ffffffffffffffffffffffffffffffffffffffff163b119050919050565b6000818310611c2b57611c268284611e17565b611c36565b611c358383611e17565b5b905092915050565b600073ffffffffffffffffffffffffffffffffffffffff168273ffffffffffffffffffffffffffffffffffffffff1603611cad576040517f08c379a0000000000000000000000000000000000000000000000000000000008152600401611ca4906133b6565b60405180910390fd5b611cb681611942565b15611cf6576040517f08c379a0000000000000000000000000000000000000000000000000000000008152600401611ced90613422565b60405180910390fd5b611d02600083836119ae565b6001600360008473ffffffffffffffffffffffffffffffffffffffff1673ffffffffffffffffffffffffffffffffffffffff1681526020019081526020016000206000828254611d529190613050565b92505081905550816002600083815260200190815260200160002060006101000a81548173ffffffffffffffffffffffffffffffffffffffff021916908373ffffffffffffffffffffffffffffffffffffffff160217905550808273ffffffffffffffffffffffffffffffffffffffff16600073ffffffffffffffffffffffffffffffffffffffff167fddf252ad1be2c89b69c2b068fc378daa952ba7f163c4a11628f55a4df523b3ef60405160405180910390a4611e13600083836119b3565b5050565b600082600052816020526040600020905092915050565b828054611e3a9061273d565b90600052602060002090601f016020900481019282611e5c5760008555611ea3565b82601f10611e7557805160ff1916838001178555611ea3565b82800160010185558215611ea3579182015b82811115611ea2578251825591602001919060010190611e87565b5b509050611eb09190611eb4565b5090565b5b80821115611ecd576000816000905550600101611eb5565b5090565b6000604051905090565b600080fd5b600080fd5b60007fffffffff0000000000000000000000000000000000000000000000000000000082169050919050565b611f1a81611ee5565b8114611f2557600080fd5b50565b600081359050611f3781611f11565b92915050565b600060208284031215611f5357611f52611edb565b5b6000611f6184828501611f28565b91505092915050565b60008115159050919050565b611f7f81611f6a565b82525050565b6000602082019050611f9a6000830184611f76565b92915050565b600081519050919050565b600082825260208201905092915050565b60005b83811015611fda578082015181840152602081019050611fbf565b83811115611fe9576000848401525b50505050565b6000601f19601f8301169050919050565b600061200b82611fa0565b6120158185611fab565b9350612025818560208601611fbc565b61202e81611fef565b840191505092915050565b600060208201905081810360008301526120538184612000565b905092915050565b6000819050919050565b61206e8161205b565b811461207957600080fd5b50565b60008135905061208b81612065565b92915050565b6000602082840312156120a7576120a6611edb565b5b60006120b58482850161207c565b91505092915050565b600073ffffffffffffffffffffffffffffffffffffffff82169050919050565b60006120e9826120be565b9050919050565b6120f9816120de565b82525050565b600060208201905061211460008301846120f0565b92915050565b612123816120de565b811461212e57600080fd5b50565b6000813590506121408161211a565b92915050565b6000806040838503121561215d5761215c611edb565b5b600061216b85828601612131565b925050602061217c8582860161207c565b9150509250929050565b60008060006060848603121561219f5761219e611edb565b5b60006121ad86828701612131565b93505060206121be86828701612131565b92505060406121cf8682870161207c565b9150509250925092565b6000819050919050565b6121ec816121d9565b82525050565b600060208201905061220760008301846121e3565b92915050565b60006020828403121561222357612222611edb565b5b600061223184828501612131565b91505092915050565b6122438161205b565b82525050565b600060208201905061225e600083018461223a565b92915050565b600080fd5b600080fd5b7f4e487b7100000000000000000000000000000000000000000000000000000000600052604160045260246000fd5b6122a682611fef565b810181811067ffffffffffffffff821117156122c5576122c461226e565b5b80604052505050565b60006122d8611ed1565b90506122e4828261229d565b919050565b600067ffffffffffffffff8211156123045761230361226e565b5b61230d82611fef565b9050602081019050919050565b82818337600083830152505050565b600061233c612337846122e9565b6122ce565b90508281526020810184848401111561235857612357612269565b5b61236384828561231a565b509392505050565b600082601f8301126123805761237f612264565b5b8135612390848260208601612329565b91505092915050565b6000602082840312156123af576123ae611edb565b5b600082013567ffffffffffffffff8111156123cd576123cc611ee0565b5b6123d98482850161236b565b91505092915050565b6123eb81611f6a565b81146123f657600080fd5b50565b600081359050612408816123e2565b92915050565b6000806040838503121561242557612424611edb565b5b600061243385828601612131565b9250506020612444858286016123f9565b9150509250929050565b600067ffffffffffffffff8211156124695761246861226e565b5b61247282611fef565b9050602081019050919050565b600061249261248d8461244e565b6122ce565b9050828152602081018484840111156124ae576124ad612269565b5b6124b984828561231a565b509392505050565b600082601f8301126124d6576124d5612264565b5b81356124e684826020860161247f565b91505092915050565b6000806000806080858703121561250957612508611edb565b5b600061251787828801612131565b945050602061252887828801612131565b93505060406125398782880161207c565b925050606085013567ffffffffffffffff81111561255a57612559611ee0565b5b612566878288016124c1565b91505092959194509250565b61257b816121d9565b811461258657600080fd5b50565b60008135905061259881612572565b92915050565b600080604083850312156125b5576125b4611edb565b5b60006125c385828601612589565b925050602083013567ffffffffffffffff8111156125e4576125e3611ee0565b5b6125f08582860161236b565b9150509250929050565b6000806040838503121561261157612610611edb565b5b600061261f85828601612131565b925050602061263085828601612131565b9150509250929050565b600080fd5b600080fd5b60008083601f84011261265a57612659612264565b5b8235905067ffffffffffffffff8111156126775761267661263a565b5b6020830191508360208202830111156126935761269261263f565b5b9250929050565b600080600080606085870312156126b4576126b3611edb565b5b60006126c28782880161207c565b94505060206126d387828801612131565b935050604085013567ffffffffffffffff8111156126f4576126f3611ee0565b5b61270087828801612644565b925092505092959194509250565b7f4e487b7100000000000000000000000000000000000000000000000000000000600052602260045260246000fd5b6000600282049050600182168061275557607f821691505b6020821081036127685761276761270e565b5b50919050565b7f4552433732313a20617070726f76616c20746f2063757272656e74206f776e6560008201527f7200000000000000000000000000000000000000000000000000000000000000602082015250565b60006127ca602183611fab565b91506127d58261276e565b604082019050919050565b600060208201905081810360008301526127f9816127bd565b9050919050565b7f4552433732313a20617070726f76652063616c6c6572206973206e6f7420746f60008201527f6b656e206f776e6572206e6f7220617070726f76656420666f7220616c6c0000602082015250565b600061285c603e83611fab565b915061286782612800565b604082019050919050565b6000602082019050818103600083015261288b8161284f565b9050919050565b7f4552433732313a2063616c6c6572206973206e6f7420746f6b656e206f776e6560008201527f72206e6f7220617070726f766564000000000000000000000000000000000000602082015250565b60006128ee602e83611fab565b91506128f982612892565b604082019050919050565b6000602082019050818103600083015261291d816128e1565b9050919050565b7f4552433732313a20696e76616c696420746f6b656e2049440000000000000000600082015250565b600061295a601883611fab565b915061296582612924565b602082019050919050565b600060208201905081810360008301526129898161294d565b9050919050565b60006129a361299e846122e9565b6122ce565b9050828152602081018484840111156129bf576129be612269565b5b6129ca848285611fbc565b509392505050565b600082601f8301126129e7576129e6612264565b5b81516129f7848260208601612990565b91505092915050565b600060208284031215612a1657612a15611edb565b5b600082015167ffffffffffffffff811115612a3457612a33611ee0565b5b612a40848285016129d2565b91505092915050565b7f4552433732313a2061646472657373207a65726f206973206e6f74206120766160008201527f6c6964206f776e65720000000000000000000000000000000000000000000000602082015250565b6000612aa5602983611fab565b9150612ab082612a49565b604082019050919050565b60006020820190508181036000830152612ad481612a98565b9050919050565b7f696e76616c696420626173655572690000000000000000000000000000000000600082015250565b6000612b11600f83611fab565b9150612b1c82612adb565b602082019050919050565b60006020820190508181036000830152612b4081612b04565b9050919050565b7f4e487b7100000000000000000000000000000000000000000000000000000000600052601260045260246000fd5b7f4e487b7100000000000000000000000000000000000000000000000000000000600052601160045260246000fd5b6000612bb08261205b565b9150612bbb8361205b565b925082612bcb57612bca612b47565b5b828204905092915050565b6000612be18261205b565b9150612bec8361205b565b925082612bfc57612bfb612b47565b5b828206905092915050565b7f4d6572676550617274793a20746865206576656e7420686173206265656e206960008201527f6e697469616c697a656400000000000000000000000000000000000000000000602082015250565b6000612c63602a83611fab565b9150612c6e82612c07565b604082019050919050565b60006020820190508181036000830152612c9281612c56565b9050919050565b7f4f776e61626c653a206e6577206f776e657220697320746865207a65726f206160008201527f6464726573730000000000000000000000000000000000000000000000000000602082015250565b6000612cf5602683611fab565b9150612d0082612c99565b604082019050919050565b60006020820190508181036000830152612d2481612ce8565b9050919050565b7f4d6572676550617274793a2044726f7020616c726561647920636c61696d656460008201527f2e00000000000000000000000000000000000000000000000000000000000000602082015250565b6000612d87602183611fab565b9150612d9282612d2b565b604082019050919050565b60006020820190508181036000830152612db681612d7a565b9050919050565b6000819050919050565b612dd8612dd38261205b565b612dbd565b82525050565b60008160601b9050919050565b6000612df682612dde565b9050919050565b6000612e0882612deb565b9050919050565b612e20612e1b826120de565b612dfd565b82525050565b6000612e328286612dc7565b602082019150612e428285612e0f565b601482019150612e528284612dc7565b602082019150819050949350505050565b7f4d6572676550617274793a20496e76616c69642070726f6f662e000000000000600082015250565b6000612e99601a83611fab565b9150612ea482612e63565b602082019050919050565b60006020820190508181036000830152612ec881612e8c565b9050919050565b6000604082019050612ee460008301856120f0565b612ef1602083018461223a565b9392505050565b7f4552433732313a207472616e736665722066726f6d20696e636f72726563742060008201527f6f776e6572000000000000000000000000000000000000000000000000000000602082015250565b6000612f54602583611fab565b9150612f5f82612ef8565b604082019050919050565b60006020820190508181036000830152612f8381612f47565b9050919050565b7f4552433732313a207472616e7366657220746f20746865207a65726f2061646460008201527f7265737300000000000000000000000000000000000000000000000000000000602082015250565b6000612fe6602483611fab565b9150612ff182612f8a565b604082019050919050565b6000602082019050818103600083015261301581612fd9565b9050919050565b60006130278261205b565b91506130328361205b565b92508282101561304557613044612b76565b5b828203905092915050565b600061305b8261205b565b91506130668361205b565b9250827fffffffffffffffffffffffffffffffffffffffffffffffffffffffffffffffff0382111561309b5761309a612b76565b5b828201905092915050565b7f4f776e61626c653a2063616c6c6572206973206e6f7420746865206f776e6572600082015250565b60006130dc602083611fab565b91506130e7826130a6565b602082019050919050565b6000602082019050818103600083015261310b816130cf565b9050919050565b7f4552433732313a20617070726f766520746f2063616c6c657200000000000000600082015250565b6000613148601983611fab565b915061315382613112565b602082019050919050565b600060208201905081810360008301526131778161313b565b9050919050565b7f4552433732313a207472616e7366657220746f206e6f6e20455243373231526560008201527f63656976657220696d706c656d656e7465720000000000000000000000000000602082015250565b60006131da603283611fab565b91506131e58261317e565b604082019050919050565b60006020820190508181036000830152613209816131cd565b9050919050565b600081519050919050565b600082825260208201905092915050565b600061323782613210565b613241818561321b565b9350613251818560208601611fbc565b61325a81611fef565b840191505092915050565b600060808201905061327a60008301876120f0565b61328760208301866120f0565b613294604083018561223a565b81810360608301526132a6818461322c565b905095945050505050565b6000815190506132c081611f11565b92915050565b6000602082840312156132dc576132db611edb565b5b60006132ea848285016132b1565b91505092915050565b7f4e487b7100000000000000000000000000000000000000000000000000000000600052603260045260246000fd5b600061332d8261205b565b91507fffffffffffffffffffffffffffffffffffffffffffffffffffffffffffffffff820361335f5761335e612b76565b5b600182019050919050565b7f4552433732313a206d696e7420746f20746865207a65726f2061646472657373600082015250565b60006133a0602083611fab565b91506133ab8261336a565b602082019050919050565b600060208201905081810360008301526133cf81613393565b9050919050565b7f4552433732313a20746f6b656e20616c7265616479206d696e74656400000000600082015250565b600061340c601c83611fab565b9150613417826133d6565b602082019050919050565b6000602082019050818103600083015261343b816133ff565b905091905056fea2646970667358221220e44afc53aaddcc43b4e4d9ffc7b6a25ca6bfa24ce17162818828e4922a3e69c964736f6c634300080d0033",
  "linkReferences": {},
  "deployedLinkReferences": {}
}