{
  "_format": "hh-sol-artifact-1",
  "contractName": "ExpressSBT",
  "sourceName": "contracts/ExpressSBT.sol",
  "abi": [
    {
      "inputs": [
        {
          "internalType": "address",
          "name": "_approver",
          "type": "address"
        },
        {
          "internalType": "uint256[]",
          "name": "_gradeLine",
          "type": "uint256[]"
        }
      ],
      "stateMutability": "nonpayable",
      "type": "constructor"
    },
    {
      "anonymous": false,
      "inputs": [
        {
          "indexed": true,
          "internalType": "address",
          "name": "owner",
          "type": "address"
        },
        {
          "indexed": true,
          "internalType": "address",
          "name": "approved",
          "type": "address"
        },
        {
          "indexed": true,
          "internalType": "uint256",
          "name": "tokenId",
          "type": "uint256"
        }
      ],
      "name": "Approval",
      "type": "event"
    },
    {
      "anonymous": false,
      "inputs": [
        {
          "indexed": true,
          "internalType": "address",
          "name": "owner",
          "type": "address"
        },
        {
          "indexed": true,
          "internalType": "address",
          "name": "operator",
          "type": "address"
        },
        {
          "indexed": false,
          "internalType": "bool",
          "name": "approved",
          "type": "bool"
        }
      ],
      "name": "ApprovalForAll",
      "type": "event"
    },
    {
      "anonymous": false,
      "inputs": [
        {
          "indexed": true,
          "internalType": "address",
          "name": "admin",
          "type": "address"
        },
        {
          "indexed": false,
          "internalType": "address",
          "name": "newApprover",
          "type": "address"
        }
      ],
      "name": "ApproverUpdated",
      "type": "event"
    },
    {
      "anonymous": false,
      "inputs": [
        {
          "indexed": true,
          "internalType": "address",
          "name": "receiver",
          "type": "address"
        },
        {
          "indexed": true,
          "internalType": "uint256",
          "name": "tokenId",
          "type": "uint256"
        },
        {
          "indexed": false,
          "internalType": "address",
          "name": "signer",
          "type": "address"
        }
      ],
      "name": "ESBTMinted",
      "type": "event"
    },
    {
      "anonymous": false,
      "inputs": [
        {
          "indexed": true,
          "internalType": "uint256[]",
          "name": "newGradeLine",
          "type": "uint256[]"
        }
      ],
      "name": "GradeLineUpdated",
      "type": "event"
    },
    {
      "anonymous": false,
      "inputs": [
        {
          "indexed": true,
          "internalType": "uint256",
          "name": "level",
          "type": "uint256"
        },
        {
          "indexed": false,
          "internalType": "string",
          "name": "levelURI",
          "type": "string"
        }
      ],
      "name": "LevelURISet",
      "type": "event"
    },
    {
      "anonymous": false,
      "inputs": [
        {
          "indexed": true,
          "internalType": "address",
          "name": "previousOwner",
          "type": "address"
        },
        {
          "indexed": true,
          "internalType": "address",
          "name": "newOwner",
          "type": "address"
        }
      ],
      "name": "OwnershipTransferred",
      "type": "event"
    },
    {
      "anonymous": false,
      "inputs": [
        {
          "indexed": true,
          "internalType": "address",
          "name": "receiver",
          "type": "address"
        },
        {
          "indexed": true,
          "internalType": "uint256",
          "name": "tokenId",
          "type": "uint256"
        },
        {
          "indexed": false,
          "internalType": "uint256",
          "name": "expressCounter",
          "type": "uint256"
        },
        {
          "indexed": false,
          "internalType": "uint256",
          "name": "SBTLevel",
          "type": "uint256"
        },
        {
          "indexed": false,
          "internalType": "string",
          "name": "tokenURI",
          "type": "string"
        }
      ],
      "name": "StatusUpdated",
      "type": "event"
    },
    {
      "anonymous": false,
      "inputs": [
        {
          "indexed": true,
          "internalType": "address",
          "name": "from",
          "type": "address"
        },
        {
          "indexed": true,
          "internalType": "address",
          "name": "to",
          "type": "address"
        },
        {
          "indexed": true,
          "internalType": "uint256",
          "name": "tokenId",
          "type": "uint256"
        }
      ],
      "name": "Transfer",
      "type": "event"
    },
    {
      "inputs": [],
      "name": "EXPRESS_TYPEHASH",
      "outputs": [
        {
          "internalType": "bytes32",
          "name": "",
          "type": "bytes32"
        }
      ],
      "stateMutability": "view",
      "type": "function"
    },
    {
      "inputs": [
        {
          "internalType": "uint256",
          "name": "newGradeLine",
          "type": "uint256"
        }
      ],
      "name": "addLevel",
      "outputs": [],
      "stateMutability": "nonpayable",
      "type": "function"
    },
    {
      "inputs": [
        {
          "internalType": "address",
          "name": "to",
          "type": "address"
        },
        {
          "internalType": "uint256",
          "name": "tokenId",
          "type": "uint256"
        }
      ],
      "name": "approve",
      "outputs": [],
      "stateMutability": "nonpayable",
      "type": "function"
    },
    {
      "inputs": [],
      "name": "approver",
      "outputs": [
        {
          "internalType": "address",
          "name": "",
          "type": "address"
        }
      ],
      "stateMutability": "view",
      "type": "function"
    },
    {
      "inputs": [
        {
          "internalType": "address",
          "name": "owner",
          "type": "address"
        }
      ],
      "name": "balanceOf",
      "outputs": [
        {
          "internalType": "uint256",
          "name": "",
          "type": "uint256"
        }
      ],
      "stateMutability": "view",
      "type": "function"
    },
    {
      "inputs": [],
      "name": "expressGradeLine",
      "outputs": [
        {
          "internalType": "uint256[]",
          "name": "",
          "type": "uint256[]"
        }
      ],
      "stateMutability": "view",
      "type": "function"
    },
    {
      "inputs": [
        {
          "internalType": "uint256",
          "name": "tokenId",
          "type": "uint256"
        }
      ],
      "name": "expressURI",
      "outputs": [
        {
          "internalType": "string",
          "name": "",
          "type": "string"
        }
      ],
      "stateMutability": "view",
      "type": "function"
    },
    {
      "inputs": [
        {
          "internalType": "uint256",
          "name": "tokenId",
          "type": "uint256"
        }
      ],
      "name": "getApproved",
      "outputs": [
        {
          "internalType": "address",
          "name": "",
          "type": "address"
        }
      ],
      "stateMutability": "view",
      "type": "function"
    },
    {
      "inputs": [
        {
          "internalType": "uint256",
          "name": "",
          "type": "uint256"
        }
      ],
      "name": "gradeLine",
      "outputs": [
        {
          "internalType": "uint256",
          "name": "",
          "type": "uint256"
        }
      ],
      "stateMutability": "view",
      "type": "function"
    },
    {
      "inputs": [
        {
          "internalType": "address",
          "name": "owner",
          "type": "address"
        },
        {
          "internalType": "address",
          "name": "operator",
          "type": "address"
        }
      ],
      "name": "isApprovedForAll",
      "outputs": [
        {
          "internalType": "bool",
          "name": "",
          "type": "bool"
        }
      ],
      "stateMutability": "view",
      "type": "function"
    },
    {
      "inputs": [
        {
          "internalType": "address",
          "name": "receiver",
          "type": "address"
        },
        {
          "internalType": "string",
          "name": "metadataURI",
          "type": "string"
        },
        {
          "internalType": "uint256",
          "name": "expressAmount",
          "type": "uint256"
        },
        {
          "internalType": "bytes",
          "name": "signature",
          "type": "bytes"
        }
      ],
      "name": "mintExpress",
      "outputs": [],
      "stateMutability": "nonpayable",
      "type": "function"
    },
    {
      "inputs": [
        {
          "internalType": "address",
          "name": "account",
          "type": "address"
        }
      ],
      "name": "mintedLevels",
      "outputs": [
        {
          "internalType": "uint256[]",
          "name": "",
          "type": "uint256[]"
        }
      ],
      "stateMutability": "view",
      "type": "function"
    },
    {
      "inputs": [],
      "name": "name",
      "outputs": [
        {
          "internalType": "string",
          "name": "",
          "type": "string"
        }
      ],
      "stateMutability": "view",
      "type": "function"
    },
    {
      "inputs": [],
      "name": "owner",
      "outputs": [
        {
          "internalType": "address",
          "name": "",
          "type": "address"
        }
      ],
      "stateMutability": "view",
      "type": "function"
    },
    {
      "inputs": [
        {
          "internalType": "uint256",
          "name": "tokenId",
          "type": "uint256"
        }
      ],
      "name": "ownerOf",
      "outputs": [
        {
          "internalType": "address",
          "name": "",
          "type": "address"
        }
      ],
      "stateMutability": "view",
      "type": "function"
    },
    {
      "inputs": [],
      "name": "renounceOwnership",
      "outputs": [],
      "stateMutability": "nonpayable",
      "type": "function"
    },
    {
      "inputs": [
        {
          "internalType": "address",
          "name": "from",
          "type": "address"
        },
        {
          "internalType": "address",
          "name": "to",
          "type": "address"
        },
        {
          "internalType": "uint256",
          "name": "tokenId",
          "type": "uint256"
        }
      ],
      "name": "safeTransferFrom",
      "outputs": [],
      "stateMutability": "nonpayable",
      "type": "function"
    },
    {
      "inputs": [
        {
          "internalType": "address",
          "name": "from",
          "type": "address"
        },
        {
          "internalType": "address",
          "name": "to",
          "type": "address"
        },
        {
          "internalType": "uint256",
          "name": "tokenId",
          "type": "uint256"
        },
        {
          "internalType": "bytes",
          "name": "data",
          "type": "bytes"
        }
      ],
      "name": "safeTransferFrom",
      "outputs": [],
      "stateMutability": "nonpayable",
      "type": "function"
    },
    {
      "inputs": [
        {
          "internalType": "address",
          "name": "operator",
          "type": "address"
        },
        {
          "internalType": "bool",
          "name": "approved",
          "type": "bool"
        }
      ],
      "name": "setApprovalForAll",
      "outputs": [],
      "stateMutability": "nonpayable",
      "type": "function"
    },
    {
      "inputs": [
        {
          "internalType": "bytes4",
          "name": "interfaceId",
          "type": "bytes4"
        }
      ],
      "name": "supportsInterface",
      "outputs": [
        {
          "internalType": "bool",
          "name": "",
          "type": "bool"
        }
      ],
      "stateMutability": "view",
      "type": "function"
    },
    {
      "inputs": [],
      "name": "symbol",
      "outputs": [
        {
          "internalType": "string",
          "name": "",
          "type": "string"
        }
      ],
      "stateMutability": "view",
      "type": "function"
    },
    {
      "inputs": [
        {
          "internalType": "uint256",
          "name": "index",
          "type": "uint256"
        }
      ],
      "name": "tokenByIndex",
      "outputs": [
        {
          "internalType": "uint256",
          "name": "",
          "type": "uint256"
        }
      ],
      "stateMutability": "view",
      "type": "function"
    },
    {
      "inputs": [
        {
          "internalType": "uint256",
          "name": "tokenId",
          "type": "uint256"
        }
      ],
      "name": "tokenLevel",
      "outputs": [
        {
          "internalType": "uint256",
          "name": "",
          "type": "uint256"
        }
      ],
      "stateMutability": "view",
      "type": "function"
    },
    {
      "inputs": [
        {
          "internalType": "address",
          "name": "owner",
          "type": "address"
        },
        {
          "internalType": "uint256",
          "name": "index",
          "type": "uint256"
        }
      ],
      "name": "tokenOfOwnerByIndex",
      "outputs": [
        {
          "internalType": "uint256",
          "name": "",
          "type": "uint256"
        }
      ],
      "stateMutability": "view",
      "type": "function"
    },
    {
      "inputs": [
        {
          "internalType": "uint256",
          "name": "tokenId",
          "type": "uint256"
        }
      ],
      "name": "tokenURI",
      "outputs": [
        {
          "internalType": "string",
          "name": "",
          "type": "string"
        }
      ],
      "stateMutability": "view",
      "type": "function"
    },
    {
      "inputs": [],
      "name": "totalSupply",
      "outputs": [
        {
          "internalType": "uint256",
          "name": "",
          "type": "uint256"
        }
      ],
      "stateMutability": "view",
      "type": "function"
    },
    {
      "inputs": [
        {
          "internalType": "address",
          "name": "from",
          "type": "address"
        },
        {
          "internalType": "address",
          "name": "to",
          "type": "address"
        },
        {
          "internalType": "uint256",
          "name": "tokenId",
          "type": "uint256"
        }
      ],
      "name": "transferFrom",
      "outputs": [],
      "stateMutability": "nonpayable",
      "type": "function"
    },
    {
      "inputs": [
        {
          "internalType": "address",
          "name": "newOwner",
          "type": "address"
        }
      ],
      "name": "transferOwnership",
      "outputs": [],
      "stateMutability": "nonpayable",
      "type": "function"
    },
    {
      "inputs": [
        {
          "internalType": "address",
          "name": "_newApprover",
          "type": "address"
        }
      ],
      "name": "updateApprover",
      "outputs": [],
      "stateMutability": "nonpayable",
      "type": "function"
    },
    {
      "inputs": [
        {
          "internalType": "uint256",
          "name": "level",
          "type": "uint256"
        },
        {
          "internalType": "string",
          "name": "newURI",
          "type": "string"
        }
      ],
      "name": "updateSBTURI",
      "outputs": [],
      "stateMutability": "nonpayable",
      "type": "function"
    },
    {
      "inputs": [
        {
          "internalType": "string[]",
          "name": "newURIs",
          "type": "string[]"
        }
      ],
      "name": "updateSBTURIs",
      "outputs": [],
      "stateMutability": "nonpayable",
      "type": "function"
    }
  ],
  "bytecode": "0x6101406040523480156200001257600080fd5b506040516200582c3803806200582c8339818101604052810190620000389190620006c0565b6040518060400160405280600a81526020017f45787072657373534254000000000000000000000000000000000000000000008152506040518060400160405280600881526020017f45544847696674730000000000000000000000000000000000000000000000008152506040518060400160405280600a81526020017f45787072657373534254000000000000000000000000000000000000000000008152506040518060400160405280600181526020017f310000000000000000000000000000000000000000000000000000000000000081525060008280519060200120905060008280519060200120905060007f8b73c3c69bb8fe3d512ecc4cf759cc79239f7b179b0ffacaa9a75d522b39400f90508260e081815250508161010081815250504660a08181525050620001798184846200027060201b60201c565b608081815250503073ffffffffffffffffffffffffffffffffffffffff1660c08173ffffffffffffffffffffffffffffffffffffffff168152505080610120818152505050505050508160009080519060200190620001da929190620003e7565b508060019080519060200190620001f3929190620003e7565b505050620002166200020a620002ac60201b60201c565b620002b460201b60201c565b62000227816200037a60201b60201c565b81600c60006101000a81548173ffffffffffffffffffffffffffffffffffffffff021916908373ffffffffffffffffffffffffffffffffffffffff1602179055505050620008cf565b600083838346306040516020016200028d95949392919062000763565b6040516020818303038152906040528051906020012090509392505050565b600033905090565b6000600a60009054906101000a900473ffffffffffffffffffffffffffffffffffffffff16905081600a60006101000a81548173ffffffffffffffffffffffffffffffffffffffff021916908373ffffffffffffffffffffffffffffffffffffffff1602179055508173ffffffffffffffffffffffffffffffffffffffff168173ffffffffffffffffffffffffffffffffffffffff167f8be0079c531659141344cd1fd0a4f28419497f9722a3daafe3b4186f6b6457e060405160405180910390a35050565b60005b8151811015620003e35760128282815181106200039f576200039e620007c0565b5b602002602001015190806001815401808255809150506001900390600052602060002001600090919091909150558080620003da906200081e565b9150506200037d565b5050565b828054620003f5906200089a565b90600052602060002090601f01602090048101928262000419576000855562000465565b82601f106200043457805160ff191683800117855562000465565b8280016001018555821562000465579182015b828111156200046457825182559160200191906001019062000447565b5b50905062000474919062000478565b5090565b5b808211156200049357600081600090555060010162000479565b5090565b6000604051905090565b600080fd5b600080fd5b600073ffffffffffffffffffffffffffffffffffffffff82169050919050565b6000620004d882620004ab565b9050919050565b620004ea81620004cb565b8114620004f657600080fd5b50565b6000815190506200050a81620004df565b92915050565b600080fd5b6000601f19601f8301169050919050565b7f4e487b7100000000000000000000000000000000000000000000000000000000600052604160045260246000fd5b620005608262000515565b810181811067ffffffffffffffff8211171562000582576200058162000526565b5b80604052505050565b60006200059762000497565b9050620005a5828262000555565b919050565b600067ffffffffffffffff821115620005c857620005c762000526565b5b602082029050602081019050919050565b600080fd5b6000819050919050565b620005f381620005de565b8114620005ff57600080fd5b50565b6000815190506200061381620005e8565b92915050565b6000620006306200062a84620005aa565b6200058b565b90508083825260208201905060208402830185811115620006565762000655620005d9565b5b835b818110156200068357806200066e888262000602565b84526020840193505060208101905062000658565b5050509392505050565b600082601f830112620006a557620006a462000510565b5b8151620006b784826020860162000619565b91505092915050565b60008060408385031215620006da57620006d9620004a1565b5b6000620006ea85828601620004f9565b925050602083015167ffffffffffffffff8111156200070e576200070d620004a6565b5b6200071c858286016200068d565b9150509250929050565b6000819050919050565b6200073b8162000726565b82525050565b6200074c81620005de565b82525050565b6200075d81620004cb565b82525050565b600060a0820190506200077a600083018862000730565b62000789602083018762000730565b62000798604083018662000730565b620007a7606083018562000741565b620007b6608083018462000752565b9695505050505050565b7f4e487b7100000000000000000000000000000000000000000000000000000000600052603260045260246000fd5b7f4e487b7100000000000000000000000000000000000000000000000000000000600052601160045260246000fd5b60006200082b82620005de565b91507fffffffffffffffffffffffffffffffffffffffffffffffffffffffffffffffff820362000860576200085f620007ef565b5b600182019050919050565b7f4e487b7100000000000000000000000000000000000000000000000000000000600052602260045260246000fd5b60006002820490506001821680620008b357607f821691505b602082108103620008c957620008c86200086b565b5b50919050565b60805160a05160c05160e0516101005161012051614f0d6200091f60003960006125e00152600061262201526000612601015260006125360152600061258c015260006125b50152614f0d6000f3fe608060405234801561001057600080fd5b50600436106101e55760003560e01c80636009fe9d1161010f578063a22cb465116100a2578063c87b56dd11610071578063c87b56dd146105a2578063d389dc0a146105d2578063e985e9c5146105ee578063f2fde38b1461061e576101e5565b8063a22cb4651461051e578063ab8ece8b1461053a578063b88d4fde1461056a578063bd7da65414610586576101e5565b8063889b93f7116100de578063889b93f7146104a85780638da5cb5b146104c657806395d89b41146104e45780639c0e08d514610502576101e5565b80636009fe9d1461040e5780636352211e1461043e57806370a082311461046e578063715018a61461049e576101e5565b806323b872dd1161018757806335f16d811161015657806335f16d81146103765780633a1ad046146103a657806342842e0e146103c25780634f6ccce7146103de576101e5565b806323b872dd146102de5780632ce74b33146102fa5780632f745c591461031657806331f0fb5114610346576101e5565b8063095ea7b3116101c3578063095ea7b314610268578063140fd30b14610284578063141a8dd8146102a257806318160ddd146102c0576101e5565b806301ffc9a7146101ea57806306fdde031461021a578063081812fc14610238575b600080fd5b61020460048036038101906101ff919061311b565b61063a565b6040516102119190613163565b60405180910390f35b6102226106b4565b60405161022f9190613217565b60405180910390f35b610252600480360381019061024d919061326f565b610746565b60405161025f91906132dd565b60405180910390f35b610282600480360381019061027d9190613324565b61078c565b005b61028c6108a3565b604051610299919061337d565b60405180910390f35b6102aa6108c7565b6040516102b791906132dd565b60405180910390f35b6102c86108ed565b6040516102d591906133a7565b60405180910390f35b6102f860048036038101906102f391906133c2565b6108fa565b005b610314600480360381019061030f9190613630565b61095a565b005b610330600480360381019061032b9190613324565b6109f1565b60405161033d91906133a7565b60405180910390f35b610360600480360381019061035b919061326f565b610a96565b60405161036d9190613217565b60405180910390f35b610390600480360381019061038b9190613679565b610b96565b60405161039d9190613764565b60405180910390f35b6103c060048036038101906103bb919061326f565b610c2d565b005b6103dc60048036038101906103d791906133c2565b610d15565b005b6103f860048036038101906103f3919061326f565b610d35565b60405161040591906133a7565b60405180910390f35b6104286004803603810190610423919061326f565b610da6565b60405161043591906133a7565b60405180910390f35b6104586004803603810190610453919061326f565b610dca565b60405161046591906132dd565b60405180910390f35b61048860048036038101906104839190613679565b610e7b565b60405161049591906133a7565b60405180910390f35b6104a6610f32565b005b6104b0610f46565b6040516104bd9190613764565b60405180910390f35b6104ce610f9e565b6040516104db91906132dd565b60405180910390f35b6104ec610fc8565b6040516104f99190613217565b60405180910390f35b61051c600480360381019061051791906137e1565b61105a565b005b610538600480360381019061053391906138b1565b61129f565b005b610554600480360381019061054f919061326f565b6112b5565b60405161056191906133a7565b60405180910390f35b610584600480360381019061057f9190613992565b61131a565b005b6105a0600480360381019061059b9190613679565b61137c565b005b6105bc60048036038101906105b7919061326f565b611485565b6040516105c99190613217565b60405180910390f35b6105ec60048036038101906105e79190613a15565b611572565b005b61060860048036038101906106039190613a71565b61163f565b6040516106159190613163565b60405180910390f35b61063860048036038101906106339190613679565b6116d3565b005b60007f780e9d63000000000000000000000000000000000000000000000000000000007bffffffffffffffffffffffffffffffffffffffffffffffffffffffff1916827bffffffffffffffffffffffffffffffffffffffffffffffffffffffff191614806106ad57506106ac82611756565b5b9050919050565b6060600080546106c390613ae0565b80601f01602080910402602001604051908101604052809291908181526020018280546106ef90613ae0565b801561073c5780601f106107115761010080835404028352916020019161073c565b820191906000526020600020905b81548152906001019060200180831161071f57829003601f168201915b5050505050905090565b600061075182611838565b6004600083815260200190815260200160002060009054906101000a900473ffffffffffffffffffffffffffffffffffffffff169050919050565b600061079782610dca565b90508073ffffffffffffffffffffffffffffffffffffffff168373ffffffffffffffffffffffffffffffffffffffff1603610807576040517f08c379a00000000000000000000000000000000000000000000000000000000081526004016107fe90613b83565b60405180910390fd5b8073ffffffffffffffffffffffffffffffffffffffff16610826611883565b73ffffffffffffffffffffffffffffffffffffffff16148061085557506108548161084f611883565b61163f565b5b610894576040517f08c379a000000000000000000000000000000000000000000000000000000000815260040161088b90613c15565b60405180910390fd5b61089e838361188b565b505050565b7f54c1e20f7e5687f15165313fa4945b2267e902bfd68f39cbd14f3440929fb05c81565b600c60009054906101000a900473ffffffffffffffffffffffffffffffffffffffff1681565b6000600880549050905090565b61090b610905611883565b82611944565b61094a576040517f08c379a000000000000000000000000000000000000000000000000000000000815260040161094190613ca7565b60405180910390fd5b6109558383836119d9565b505050565b610962611c3f565b6012805490508151146109aa576040517f08c379a00000000000000000000000000000000000000000000000000000000081526004016109a190613d13565b60405180910390fd5b60005b81518110156109ed576109da818383815181106109cd576109cc613d33565b5b6020026020010151611572565b80806109e590613d91565b9150506109ad565b5050565b60006109fc83610e7b565b8210610a3d576040517f08c379a0000000000000000000000000000000000000000000000000000000008152600401610a3490613e4b565b60405180910390fd5b600660008473ffffffffffffffffffffffffffffffffffffffff1673ffffffffffffffffffffffffffffffffffffffff168152602001908152602001600020600083815260200190815260200160002054905092915050565b6060610aa182611cbd565b610ae0576040517f08c379a0000000000000000000000000000000000000000000000000000000008152600401610ad790613eb7565b60405180910390fd5b60106000600f60008581526020019081526020016000205481526020019081526020016000208054610b1190613ae0565b80601f0160208091040260200160405190810160405280929190818152602001828054610b3d90613ae0565b8015610b8a5780601f10610b5f57610100808354040283529160200191610b8a565b820191906000526020600020905b815481529060010190602001808311610b6d57829003601f168201915b50505050509050919050565b6060601160008373ffffffffffffffffffffffffffffffffffffffff1673ffffffffffffffffffffffffffffffffffffffff168152602001908152602001600020805480602002602001604051908101604052809291908181526020018280548015610c2157602002820191906000526020600020905b815481526020019060010190808311610c0d575b50505050509050919050565b610c35611c3f565b60126001601280549050610c499190613ed7565b81548110610c5a57610c59613d33565b5b90600052602060002001548111610ca6576040517f08c379a0000000000000000000000000000000000000000000000000000000008152600401610c9d90613f7d565b60405180910390fd5b60128190806001815401808255809150506001900390600052602060002001600090919091909150556012604051610cde91906140a5565b60405180910390207fa9f8292c2baba9576b4ca7758578af15b32ed84e34a00c79eeb07fbf29a3059960405160405180910390a250565b610d308383836040518060200160405280600081525061131a565b505050565b6000610d3f6108ed565b8210610d80576040517f08c379a0000000000000000000000000000000000000000000000000000000008152600401610d779061412e565b60405180910390fd5b60088281548110610d9457610d93613d33565b5b90600052602060002001549050919050565b60128181548110610db657600080fd5b906000526020600020016000915090505481565b6000806002600084815260200190815260200160002060009054906101000a900473ffffffffffffffffffffffffffffffffffffffff169050600073ffffffffffffffffffffffffffffffffffffffff168173ffffffffffffffffffffffffffffffffffffffff1603610e72576040517f08c379a0000000000000000000000000000000000000000000000000000000008152600401610e699061419a565b60405180910390fd5b80915050919050565b60008073ffffffffffffffffffffffffffffffffffffffff168273ffffffffffffffffffffffffffffffffffffffff1603610eeb576040517f08c379a0000000000000000000000000000000000000000000000000000000008152600401610ee29061422c565b60405180910390fd5b600360008373ffffffffffffffffffffffffffffffffffffffff1673ffffffffffffffffffffffffffffffffffffffff168152602001908152602001600020549050919050565b610f3a611c3f565b610f446000611d29565b565b60606012805480602002602001604051908101604052809291908181526020018280548015610f9457602002820191906000526020600020905b815481526020019060010190808311610f80575b5050505050905090565b6000600a60009054906101000a900473ffffffffffffffffffffffffffffffffffffffff16905090565b606060018054610fd790613ae0565b80601f016020809104026020016040519081016040528092919081815260200182805461100390613ae0565b80156110505780601f1061102557610100808354040283529160200191611050565b820191906000526020600020905b81548152906001019060200180831161103357829003601f168201915b5050505050905090565b60007f54c1e20f7e5687f15165313fa4945b2267e902bfd68f39cbd14f3440929fb05c8686805190602001208660405160200161109a949392919061424c565b60405160208183030381529060405280519060200120905060006110bd82611def565b9050600061110f8286868080601f016020809104026020016040519081016040528093929190818152602001838380828437600081840152601f19601f82011690508083019250505050505050611e09565b9050600c60009054906101000a900473ffffffffffffffffffffffffffffffffffffffff1673ffffffffffffffffffffffffffffffffffffffff168173ffffffffffffffffffffffffffffffffffffffff16146111a1576040517f08c379a0000000000000000000000000000000000000000000000000000000008152600401611198906142dd565b60405180910390fd5b6000806111ae8a89611e30565b91509150816111f2576040517f08c379a00000000000000000000000000000000000000000000000000000000081526004016111e99061436f565b60405180910390fd5b60006111fe600b611f3b565b905061120a600b611f49565b6112178b828b8d86611f5f565b6112218b826120a3565b808b73ffffffffffffffffffffffffffffffffffffffff167f294e3e82e412705840b3f7b620141fbb32a2a18df37cc8190844aefe059e5ec5600c60009054906101000a900473ffffffffffffffffffffffffffffffffffffffff1660405161128a91906132dd565b60405180910390a35050505050505050505050565b6112b16112aa611883565b838361227c565b5050565b60006112c082611cbd565b6112ff576040517f08c379a00000000000000000000000000000000000000000000000000000000081526004016112f690613eb7565b60405180910390fd5b600f6000838152602001908152602001600020549050919050565b61132b611325611883565b83611944565b61136a576040517f08c379a000000000000000000000000000000000000000000000000000000000815260040161136190613ca7565b60405180910390fd5b611376848484846123e8565b50505050565b611384611c3f565b600073ffffffffffffffffffffffffffffffffffffffff168173ffffffffffffffffffffffffffffffffffffffff16036113f3576040517f08c379a00000000000000000000000000000000000000000000000000000000081526004016113ea906143db565b60405180910390fd5b80600c60006101000a81548173ffffffffffffffffffffffffffffffffffffffff021916908373ffffffffffffffffffffffffffffffffffffffff1602179055503373ffffffffffffffffffffffffffffffffffffffff167f1197dc1d7408bbfd5e44c98c35314d9acf9f8611f4d87037f0614922404d8afd8260405161147a91906132dd565b60405180910390a250565b606061149082611cbd565b6114cf576040517f08c379a00000000000000000000000000000000000000000000000000000000081526004016114c690613eb7565b60405180910390fd5b600d600083815260200190815260200160002080546114ed90613ae0565b80601f016020809104026020016040519081016040528092919081815260200182805461151990613ae0565b80156115665780601f1061153b57610100808354040283529160200191611566565b820191906000526020600020905b81548152906001019060200180831161154957829003601f168201915b50505050509050919050565b61157a611c3f565b6000601283815481106115905761158f613d33565b5b9060005260206000200154036115db576040517f08c379a00000000000000000000000000000000000000000000000000000000081526004016115d290614447565b60405180910390fd5b8060106000848152602001908152602001600020908051906020019061160292919061300c565b50817f381e6a929c22b30d336d15bdfb023ed697c3538418e53dd4b9703e5429529761826040516116339190613217565b60405180910390a25050565b6000600560008473ffffffffffffffffffffffffffffffffffffffff1673ffffffffffffffffffffffffffffffffffffffff16815260200190815260200160002060008373ffffffffffffffffffffffffffffffffffffffff1673ffffffffffffffffffffffffffffffffffffffff16815260200190815260200160002060009054906101000a900460ff16905092915050565b6116db611c3f565b600073ffffffffffffffffffffffffffffffffffffffff168173ffffffffffffffffffffffffffffffffffffffff160361174a576040517f08c379a0000000000000000000000000000000000000000000000000000000008152600401611741906144d9565b60405180910390fd5b61175381611d29565b50565b60007f80ac58cd000000000000000000000000000000000000000000000000000000007bffffffffffffffffffffffffffffffffffffffffffffffffffffffff1916827bffffffffffffffffffffffffffffffffffffffffffffffffffffffff1916148061182157507f5b5e139f000000000000000000000000000000000000000000000000000000007bffffffffffffffffffffffffffffffffffffffffffffffffffffffff1916827bffffffffffffffffffffffffffffffffffffffffffffffffffffffff1916145b80611831575061183082612444565b5b9050919050565b61184181611cbd565b611880576040517f08c379a00000000000000000000000000000000000000000000000000000000081526004016118779061419a565b60405180910390fd5b50565b600033905090565b816004600083815260200190815260200160002060006101000a81548173ffffffffffffffffffffffffffffffffffffffff021916908373ffffffffffffffffffffffffffffffffffffffff160217905550808273ffffffffffffffffffffffffffffffffffffffff166118fe83610dca565b73ffffffffffffffffffffffffffffffffffffffff167f8c5be1e5ebec7d5bd14f71427d1e84f3dd0314c0f7b2291e5b200ac8c7c3b92560405160405180910390a45050565b60008061195083610dca565b90508073ffffffffffffffffffffffffffffffffffffffff168473ffffffffffffffffffffffffffffffffffffffff1614806119925750611991818561163f565b5b806119d057508373ffffffffffffffffffffffffffffffffffffffff166119b884610746565b73ffffffffffffffffffffffffffffffffffffffff16145b91505092915050565b8273ffffffffffffffffffffffffffffffffffffffff166119f982610dca565b73ffffffffffffffffffffffffffffffffffffffff1614611a4f576040517f08c379a0000000000000000000000000000000000000000000000000000000008152600401611a469061456b565b60405180910390fd5b600073ffffffffffffffffffffffffffffffffffffffff168273ffffffffffffffffffffffffffffffffffffffff1603611abe576040517f08c379a0000000000000000000000000000000000000000000000000000000008152600401611ab5906145fd565b60405180910390fd5b611ac98383836124ae565b611ad460008261188b565b6001600360008573ffffffffffffffffffffffffffffffffffffffff1673ffffffffffffffffffffffffffffffffffffffff1681526020019081526020016000206000828254611b249190613ed7565b925050819055506001600360008473ffffffffffffffffffffffffffffffffffffffff1673ffffffffffffffffffffffffffffffffffffffff1681526020019081526020016000206000828254611b7b919061461d565b92505081905550816002600083815260200190815260200160002060006101000a81548173ffffffffffffffffffffffffffffffffffffffff021916908373ffffffffffffffffffffffffffffffffffffffff160217905550808273ffffffffffffffffffffffffffffffffffffffff168473ffffffffffffffffffffffffffffffffffffffff167fddf252ad1be2c89b69c2b068fc378daa952ba7f163c4a11628f55a4df523b3ef60405160405180910390a4611c3a83838361252d565b505050565b611c47611883565b73ffffffffffffffffffffffffffffffffffffffff16611c65610f9e565b73ffffffffffffffffffffffffffffffffffffffff1614611cbb576040517f08c379a0000000000000000000000000000000000000000000000000000000008152600401611cb2906146bf565b60405180910390fd5b565b60008073ffffffffffffffffffffffffffffffffffffffff166002600084815260200190815260200160002060009054906101000a900473ffffffffffffffffffffffffffffffffffffffff1673ffffffffffffffffffffffffffffffffffffffff1614159050919050565b6000600a60009054906101000a900473ffffffffffffffffffffffffffffffffffffffff16905081600a60006101000a81548173ffffffffffffffffffffffffffffffffffffffff021916908373ffffffffffffffffffffffffffffffffffffffff1602179055508173ffffffffffffffffffffffffffffffffffffffff168173ffffffffffffffffffffffffffffffffffffffff167f8be0079c531659141344cd1fd0a4f28419497f9722a3daafe3b4186f6b6457e060405160405180910390a35050565b6000611e02611dfc612532565b8361264c565b9050919050565b6000806000611e18858561267f565b91509150611e25816126d0565b819250505092915050565b6000806000611e3e85610e7b565b90506000611e4b86610b96565b90506012805490508203611e94576040517f08c379a0000000000000000000000000000000000000000000000000000000008152600401611e8b9061472b565b60405180910390fd5b6000611e9f8661289c565b90506000825114611f275760005b8251811015611f255781838281518110611eca57611ec9613d33565b5b602002602001015103611f12576040517f08c379a0000000000000000000000000000000000000000000000000000000008152600401611f0990614797565b60405180910390fd5b8080611f1d90613d91565b915050611ead565b505b600081141594508093505050509250929050565b600081600001549050919050565b6001816000016000828254019250508190555050565b82600e60008773ffffffffffffffffffffffffffffffffffffffff1673ffffffffffffffffffffffffffffffffffffffff1681526020019081526020016000208190555081600d60008681526020019081526020016000209080519060200190611fca92919061300c565b5080600f600086815260200190815260200160002081905550601160008673ffffffffffffffffffffffffffffffffffffffff1673ffffffffffffffffffffffffffffffffffffffff168152602001908152602001600020819080600181540180825580915050600190039060005260206000200160009091909190915055838573ffffffffffffffffffffffffffffffffffffffff167fbcb7eeaf829a6db78f151b966bef6fb8b1d289adec57ccdacfc40e47cfdc6b36858486604051612094939291906147b7565b60405180910390a35050505050565b600073ffffffffffffffffffffffffffffffffffffffff168273ffffffffffffffffffffffffffffffffffffffff1603612112576040517f08c379a000000000000000000000000000000000000000000000000000000000815260040161210990614841565b60405180910390fd5b61211b81611cbd565b1561215b576040517f08c379a0000000000000000000000000000000000000000000000000000000008152600401612152906148ad565b60405180910390fd5b612167600083836124ae565b6001600360008473ffffffffffffffffffffffffffffffffffffffff1673ffffffffffffffffffffffffffffffffffffffff16815260200190815260200160002060008282546121b7919061461d565b92505081905550816002600083815260200190815260200160002060006101000a81548173ffffffffffffffffffffffffffffffffffffffff021916908373ffffffffffffffffffffffffffffffffffffffff160217905550808273ffffffffffffffffffffffffffffffffffffffff16600073ffffffffffffffffffffffffffffffffffffffff167fddf252ad1be2c89b69c2b068fc378daa952ba7f163c4a11628f55a4df523b3ef60405160405180910390a46122786000838361252d565b5050565b8173ffffffffffffffffffffffffffffffffffffffff168373ffffffffffffffffffffffffffffffffffffffff16036122ea576040517f08c379a00000000000000000000000000000000000000000000000000000000081526004016122e190614919565b60405180910390fd5b80600560008573ffffffffffffffffffffffffffffffffffffffff1673ffffffffffffffffffffffffffffffffffffffff16815260200190815260200160002060008473ffffffffffffffffffffffffffffffffffffffff1673ffffffffffffffffffffffffffffffffffffffff16815260200190815260200160002060006101000a81548160ff0219169083151502179055508173ffffffffffffffffffffffffffffffffffffffff168373ffffffffffffffffffffffffffffffffffffffff167f17307eab39ab6107e8899845ad3d59bd9653f200f220920489ca2b5937696c31836040516123db9190613163565b60405180910390a3505050565b6123f38484846119d9565b6123ff848484846128ff565b61243e576040517f08c379a0000000000000000000000000000000000000000000000000000000008152600401612435906149ab565b60405180910390fd5b50505050565b60007f01ffc9a7000000000000000000000000000000000000000000000000000000007bffffffffffffffffffffffffffffffffffffffffffffffffffffffff1916827bffffffffffffffffffffffffffffffffffffffffffffffffffffffff1916149050919050565b600073ffffffffffffffffffffffffffffffffffffffff168373ffffffffffffffffffffffffffffffffffffffff161461251d576040517f08c379a000000000000000000000000000000000000000000000000000000000815260040161251490614a17565b60405180910390fd5b612528838383612a86565b505050565b505050565b60007f000000000000000000000000000000000000000000000000000000000000000073ffffffffffffffffffffffffffffffffffffffff163073ffffffffffffffffffffffffffffffffffffffff161480156125ae57507f000000000000000000000000000000000000000000000000000000000000000046145b156125db577f00000000000000000000000000000000000000000000000000000000000000009050612649565b6126467f00000000000000000000000000000000000000000000000000000000000000007f00000000000000000000000000000000000000000000000000000000000000007f0000000000000000000000000000000000000000000000000000000000000000612b98565b90505b90565b60008282604051602001612661929190614aaf565b60405160208183030381529060405280519060200120905092915050565b60008060418351036126c05760008060006020860151925060408601519150606086015160001a90506126b487828585612bd2565b945094505050506126c9565b60006002915091505b9250929050565b600060048111156126e4576126e3614ae6565b5b8160048111156126f7576126f6614ae6565b5b0315612899576001600481111561271157612710614ae6565b5b81600481111561272457612723614ae6565b5b03612764576040517f08c379a000000000000000000000000000000000000000000000000000000000815260040161275b90614b61565b60405180910390fd5b6002600481111561277857612777614ae6565b5b81600481111561278b5761278a614ae6565b5b036127cb576040517f08c379a00000000000000000000000000000000000000000000000000000000081526004016127c290614bcd565b60405180910390fd5b600360048111156127df576127de614ae6565b5b8160048111156127f2576127f1614ae6565b5b03612832576040517f08c379a000000000000000000000000000000000000000000000000000000000815260040161282990614c5f565b60405180910390fd5b60048081111561284557612844614ae6565b5b81600481111561285857612857614ae6565b5b03612898576040517f08c379a000000000000000000000000000000000000000000000000000000000815260040161288f90614cf1565b60405180910390fd5b5b50565b600080600090505b6012805490508110156128f957601281815481106128c5576128c4613d33565b5b906000526020600020015483106128e6576001816128e3919061461d565b91505b80806128f190613d91565b9150506128a4565b50919050565b60006129208473ffffffffffffffffffffffffffffffffffffffff16612cde565b15612a79578373ffffffffffffffffffffffffffffffffffffffff1663150b7a02612949611883565b8786866040518563ffffffff1660e01b815260040161296b9493929190614d66565b6020604051808303816000875af19250505080156129a757506040513d601f19601f820116820180604052508101906129a49190614dc7565b60015b612a29573d80600081146129d7576040519150601f19603f3d011682016040523d82523d6000602084013e6129dc565b606091505b506000815103612a21576040517f08c379a0000000000000000000000000000000000000000000000000000000008152600401612a18906149ab565b60405180910390fd5b805181602001fd5b63150b7a0260e01b7bffffffffffffffffffffffffffffffffffffffffffffffffffffffff1916817bffffffffffffffffffffffffffffffffffffffffffffffffffffffff191614915050612a7e565b600190505b949350505050565b612a91838383612d01565b600073ffffffffffffffffffffffffffffffffffffffff168373ffffffffffffffffffffffffffffffffffffffff1603612ad357612ace81612d06565b612b12565b8173ffffffffffffffffffffffffffffffffffffffff168373ffffffffffffffffffffffffffffffffffffffff1614612b1157612b108382612d4f565b5b5b600073ffffffffffffffffffffffffffffffffffffffff168273ffffffffffffffffffffffffffffffffffffffff1603612b5457612b4f81612ebc565b612b93565b8273ffffffffffffffffffffffffffffffffffffffff168273ffffffffffffffffffffffffffffffffffffffff1614612b9257612b918282612f8d565b5b5b505050565b60008383834630604051602001612bb3959493929190614df4565b6040516020818303038152906040528051906020012090509392505050565b6000807f7fffffffffffffffffffffffffffffff5d576e7357a4501ddfe92f46681b20a08360001c1115612c0d576000600391509150612cd5565b601b8560ff1614158015612c255750601c8560ff1614155b15612c37576000600491509150612cd5565b600060018787878760405160008152602001604052604051612c5c9493929190614e63565b6020604051602081039080840390855afa158015612c7e573d6000803e3d6000fd5b505050602060405103519050600073ffffffffffffffffffffffffffffffffffffffff168173ffffffffffffffffffffffffffffffffffffffff1603612ccc57600060019250925050612cd5565b80600092509250505b94509492505050565b6000808273ffffffffffffffffffffffffffffffffffffffff163b119050919050565b505050565b6008805490506009600083815260200190815260200160002081905550600881908060018154018082558091505060019003906000526020600020016000909190919091505550565b60006001612d5c84610e7b565b612d669190613ed7565b9050600060076000848152602001908152602001600020549050818114612e4b576000600660008673ffffffffffffffffffffffffffffffffffffffff1673ffffffffffffffffffffffffffffffffffffffff168152602001908152602001600020600084815260200190815260200160002054905080600660008773ffffffffffffffffffffffffffffffffffffffff1673ffffffffffffffffffffffffffffffffffffffff168152602001908152602001600020600084815260200190815260200160002081905550816007600083815260200190815260200160002081905550505b6007600084815260200190815260200160002060009055600660008573ffffffffffffffffffffffffffffffffffffffff1673ffffffffffffffffffffffffffffffffffffffff16815260200190815260200160002060008381526020019081526020016000206000905550505050565b60006001600880549050612ed09190613ed7565b9050600060096000848152602001908152602001600020549050600060088381548110612f0057612eff613d33565b5b906000526020600020015490508060088381548110612f2257612f21613d33565b5b906000526020600020018190555081600960008381526020019081526020016000208190555060096000858152602001908152602001600020600090556008805480612f7157612f70614ea8565b5b6001900381819060005260206000200160009055905550505050565b6000612f9883610e7b565b905081600660008573ffffffffffffffffffffffffffffffffffffffff1673ffffffffffffffffffffffffffffffffffffffff168152602001908152602001600020600083815260200190815260200160002081905550806007600084815260200190815260200160002081905550505050565b82805461301890613ae0565b90600052602060002090601f01602090048101928261303a5760008555613081565b82601f1061305357805160ff1916838001178555613081565b82800160010185558215613081579182015b82811115613080578251825591602001919060010190613065565b5b50905061308e9190613092565b5090565b5b808211156130ab576000816000905550600101613093565b5090565b6000604051905090565b600080fd5b600080fd5b60007fffffffff0000000000000000000000000000000000000000000000000000000082169050919050565b6130f8816130c3565b811461310357600080fd5b50565b600081359050613115816130ef565b92915050565b600060208284031215613131576131306130b9565b5b600061313f84828501613106565b91505092915050565b60008115159050919050565b61315d81613148565b82525050565b60006020820190506131786000830184613154565b92915050565b600081519050919050565b600082825260208201905092915050565b60005b838110156131b857808201518184015260208101905061319d565b838111156131c7576000848401525b50505050565b6000601f19601f8301169050919050565b60006131e98261317e565b6131f38185613189565b935061320381856020860161319a565b61320c816131cd565b840191505092915050565b6000602082019050818103600083015261323181846131de565b905092915050565b6000819050919050565b61324c81613239565b811461325757600080fd5b50565b60008135905061326981613243565b92915050565b600060208284031215613285576132846130b9565b5b60006132938482850161325a565b91505092915050565b600073ffffffffffffffffffffffffffffffffffffffff82169050919050565b60006132c78261329c565b9050919050565b6132d7816132bc565b82525050565b60006020820190506132f260008301846132ce565b92915050565b613301816132bc565b811461330c57600080fd5b50565b60008135905061331e816132f8565b92915050565b6000806040838503121561333b5761333a6130b9565b5b60006133498582860161330f565b925050602061335a8582860161325a565b9150509250929050565b6000819050919050565b61337781613364565b82525050565b6000602082019050613392600083018461336e565b92915050565b6133a181613239565b82525050565b60006020820190506133bc6000830184613398565b92915050565b6000806000606084860312156133db576133da6130b9565b5b60006133e98682870161330f565b93505060206133fa8682870161330f565b925050604061340b8682870161325a565b9150509250925092565b600080fd5b7f4e487b7100000000000000000000000000000000000000000000000000000000600052604160045260246000fd5b613452826131cd565b810181811067ffffffffffffffff821117156134715761347061341a565b5b80604052505050565b60006134846130af565b90506134908282613449565b919050565b600067ffffffffffffffff8211156134b0576134af61341a565b5b602082029050602081019050919050565b600080fd5b600080fd5b600067ffffffffffffffff8211156134e6576134e561341a565b5b6134ef826131cd565b9050602081019050919050565b82818337600083830152505050565b600061351e613519846134cb565b61347a565b90508281526020810184848401111561353a576135396134c6565b5b6135458482856134fc565b509392505050565b600082601f83011261356257613561613415565b5b813561357284826020860161350b565b91505092915050565b600061358e61358984613495565b61347a565b905080838252602082019050602084028301858111156135b1576135b06134c1565b5b835b818110156135f857803567ffffffffffffffff8111156135d6576135d5613415565b5b8086016135e3898261354d565b855260208501945050506020810190506135b3565b5050509392505050565b600082601f83011261361757613616613415565b5b813561362784826020860161357b565b91505092915050565b600060208284031215613646576136456130b9565b5b600082013567ffffffffffffffff811115613664576136636130be565b5b61367084828501613602565b91505092915050565b60006020828403121561368f5761368e6130b9565b5b600061369d8482850161330f565b91505092915050565b600081519050919050565b600082825260208201905092915050565b6000819050602082019050919050565b6136db81613239565b82525050565b60006136ed83836136d2565b60208301905092915050565b6000602082019050919050565b6000613711826136a6565b61371b81856136b1565b9350613726836136c2565b8060005b8381101561375757815161373e88826136e1565b9750613749836136f9565b92505060018101905061372a565b5085935050505092915050565b6000602082019050818103600083015261377e8184613706565b905092915050565b600080fd5b60008083601f8401126137a1576137a0613415565b5b8235905067ffffffffffffffff8111156137be576137bd613786565b5b6020830191508360018202830111156137da576137d96134c1565b5b9250929050565b6000806000806000608086880312156137fd576137fc6130b9565b5b600061380b8882890161330f565b955050602086013567ffffffffffffffff81111561382c5761382b6130be565b5b6138388882890161354d565b94505060406138498882890161325a565b935050606086013567ffffffffffffffff81111561386a576138696130be565b5b6138768882890161378b565b92509250509295509295909350565b61388e81613148565b811461389957600080fd5b50565b6000813590506138ab81613885565b92915050565b600080604083850312156138c8576138c76130b9565b5b60006138d68582860161330f565b92505060206138e78582860161389c565b9150509250929050565b600067ffffffffffffffff82111561390c5761390b61341a565b5b613915826131cd565b9050602081019050919050565b6000613935613930846138f1565b61347a565b905082815260208101848484011115613951576139506134c6565b5b61395c8482856134fc565b509392505050565b600082601f83011261397957613978613415565b5b8135613989848260208601613922565b91505092915050565b600080600080608085870312156139ac576139ab6130b9565b5b60006139ba8782880161330f565b94505060206139cb8782880161330f565b93505060406139dc8782880161325a565b925050606085013567ffffffffffffffff8111156139fd576139fc6130be565b5b613a0987828801613964565b91505092959194509250565b60008060408385031215613a2c57613a2b6130b9565b5b6000613a3a8582860161325a565b925050602083013567ffffffffffffffff811115613a5b57613a5a6130be565b5b613a678582860161354d565b9150509250929050565b60008060408385031215613a8857613a876130b9565b5b6000613a968582860161330f565b9250506020613aa78582860161330f565b9150509250929050565b7f4e487b7100000000000000000000000000000000000000000000000000000000600052602260045260246000fd5b60006002820490506001821680613af857607f821691505b602082108103613b0b57613b0a613ab1565b5b50919050565b7f4552433732313a20617070726f76616c20746f2063757272656e74206f776e6560008201527f7200000000000000000000000000000000000000000000000000000000000000602082015250565b6000613b6d602183613189565b9150613b7882613b11565b604082019050919050565b60006020820190508181036000830152613b9c81613b60565b9050919050565b7f4552433732313a20617070726f76652063616c6c6572206973206e6f7420746f60008201527f6b656e206f776e6572206e6f7220617070726f76656420666f7220616c6c0000602082015250565b6000613bff603e83613189565b9150613c0a82613ba3565b604082019050919050565b60006020820190508181036000830152613c2e81613bf2565b9050919050565b7f4552433732313a2063616c6c6572206973206e6f7420746f6b656e206f776e6560008201527f72206e6f7220617070726f766564000000000000000000000000000000000000602082015250565b6000613c91602e83613189565b9150613c9c82613c35565b604082019050919050565b60006020820190508181036000830152613cc081613c84565b9050919050565b7f746865206c656e677468206f66206e65775552497320697320696e76616c6964600082015250565b6000613cfd602083613189565b9150613d0882613cc7565b602082019050919050565b60006020820190508181036000830152613d2c81613cf0565b9050919050565b7f4e487b7100000000000000000000000000000000000000000000000000000000600052603260045260246000fd5b7f4e487b7100000000000000000000000000000000000000000000000000000000600052601160045260246000fd5b6000613d9c82613239565b91507fffffffffffffffffffffffffffffffffffffffffffffffffffffffffffffffff8203613dce57613dcd613d62565b5b600182019050919050565b7f455243373231456e756d657261626c653a206f776e657220696e646578206f7560008201527f74206f6620626f756e6473000000000000000000000000000000000000000000602082015250565b6000613e35602b83613189565b9150613e4082613dd9565b604082019050919050565b60006020820190508181036000830152613e6481613e28565b9050919050565b7f55524920717565727920666f72206e6f6e6578697374656e7420746f6b656e00600082015250565b6000613ea1601f83613189565b9150613eac82613e6b565b602082019050919050565b60006020820190508181036000830152613ed081613e94565b9050919050565b6000613ee282613239565b9150613eed83613239565b925082821015613f0057613eff613d62565b5b828203905092915050565b7f6e65772067726164654c696e65206973206c6f776572207468616e207468652060008201527f70726576696f7573206f6e650000000000000000000000000000000000000000602082015250565b6000613f67602c83613189565b9150613f7282613f0b565b604082019050919050565b60006020820190508181036000830152613f9681613f5a565b9050919050565b600081549050919050565b600081905092915050565b60008190508160005260206000209050919050565b613fd181613239565b82525050565b6000613fe38383613fc8565b60208301905092915050565b60008160001c9050919050565b6000819050919050565b600061401961401483613fef565b613ffc565b9050919050565b600061402c8254614006565b9050919050565b6000600182019050919050565b600061404b82613f9d565b6140558185613fa8565b935061406083613fb3565b8060005b838110156140985761407582614020565b61407f8882613fd7565b975061408a83614033565b925050600181019050614064565b5085935050505092915050565b60006140b18284614040565b915081905092915050565b7f455243373231456e756d657261626c653a20676c6f62616c20696e646578206f60008201527f7574206f6620626f756e64730000000000000000000000000000000000000000602082015250565b6000614118602c83613189565b9150614123826140bc565b604082019050919050565b600060208201905081810360008301526141478161410b565b9050919050565b7f4552433732313a20696e76616c696420746f6b656e2049440000000000000000600082015250565b6000614184601883613189565b915061418f8261414e565b602082019050919050565b600060208201905081810360008301526141b381614177565b9050919050565b7f4552433732313a2061646472657373207a65726f206973206e6f74206120766160008201527f6c6964206f776e65720000000000000000000000000000000000000000000000602082015250565b6000614216602983613189565b9150614221826141ba565b604082019050919050565b6000602082019050818103600083015261424581614209565b9050919050565b6000608082019050614261600083018761336e565b61426e60208301866132ce565b61427b604083018561336e565b6142886060830184613398565b95945050505050565b7f696e76616c6964207369676e6572000000000000000000000000000000000000600082015250565b60006142c7600e83613189565b91506142d282614291565b602082019050919050565b600060208201905081810360008301526142f6816142ba565b9050919050565b7f796f7520617265206e6f7420617661696c61626c6520746f206d696e742c206f60008201527f7220796f752068617665206d696e74656420616c6c206c6576656c2053425400602082015250565b6000614359603f83613189565b9150614364826142fd565b604082019050919050565b600060208201905081810360008301526143888161434c565b9050919050565b7f496e76616c696420616464726573730000000000000000000000000000000000600082015250565b60006143c5600f83613189565b91506143d08261438f565b602082019050919050565b600060208201905081810360008301526143f4816143b8565b9050919050565b7f74686520746172676574206c6576656c20697320696e6578697374656e740000600082015250565b6000614431601e83613189565b915061443c826143fb565b602082019050919050565b6000602082019050818103600083015261446081614424565b9050919050565b7f4f776e61626c653a206e6577206f776e657220697320746865207a65726f206160008201527f6464726573730000000000000000000000000000000000000000000000000000602082015250565b60006144c3602683613189565b91506144ce82614467565b604082019050919050565b600060208201905081810360008301526144f2816144b6565b9050919050565b7f4552433732313a207472616e736665722066726f6d20696e636f72726563742060008201527f6f776e6572000000000000000000000000000000000000000000000000000000602082015250565b6000614555602583613189565b9150614560826144f9565b604082019050919050565b6000602082019050818103600083015261458481614548565b9050919050565b7f4552433732313a207472616e7366657220746f20746865207a65726f2061646460008201527f7265737300000000000000000000000000000000000000000000000000000000602082015250565b60006145e7602483613189565b91506145f28261458b565b604082019050919050565b60006020820190508181036000830152614616816145da565b9050919050565b600061462882613239565b915061463383613239565b9250827fffffffffffffffffffffffffffffffffffffffffffffffffffffffffffffffff0382111561466857614667613d62565b5b828201905092915050565b7f4f776e61626c653a2063616c6c6572206973206e6f7420746865206f776e6572600082015250565b60006146a9602083613189565b91506146b482614673565b602082019050919050565b600060208201905081810360008301526146d88161469c565b9050919050565b7f6163636f756e7420686173206d696e74656420616c6c206c6576656c20534254600082015250565b6000614715602083613189565b9150614720826146df565b602082019050919050565b6000602082019050818103600083015261474481614708565b9050919050565b7f796f752068617665206d696e7465642074686973206c6576656c000000000000600082015250565b6000614781601a83613189565b915061478c8261474b565b602082019050919050565b600060208201905081810360008301526147b081614774565b9050919050565b60006060820190506147cc6000830186613398565b6147d96020830185613398565b81810360408301526147eb81846131de565b9050949350505050565b7f4552433732313a206d696e7420746f20746865207a65726f2061646472657373600082015250565b600061482b602083613189565b9150614836826147f5565b602082019050919050565b6000602082019050818103600083015261485a8161481e565b9050919050565b7f4552433732313a20746f6b656e20616c7265616479206d696e74656400000000600082015250565b6000614897601c83613189565b91506148a282614861565b602082019050919050565b600060208201905081810360008301526148c68161488a565b9050919050565b7f4552433732313a20617070726f766520746f2063616c6c657200000000000000600082015250565b6000614903601983613189565b915061490e826148cd565b602082019050919050565b60006020820190508181036000830152614932816148f6565b9050919050565b7f4552433732313a207472616e7366657220746f206e6f6e20455243373231526560008201527f63656976657220696d706c656d656e7465720000000000000000000000000000602082015250565b6000614995603283613189565b91506149a082614939565b604082019050919050565b600060208201905081810360008301526149c481614988565b9050919050565b7f455342543a20544f4b454e20495320534f554c20424f554e4400000000000000600082015250565b6000614a01601983613189565b9150614a0c826149cb565b602082019050919050565b60006020820190508181036000830152614a30816149f4565b9050919050565b600081905092915050565b7f1901000000000000000000000000000000000000000000000000000000000000600082015250565b6000614a78600283614a37565b9150614a8382614a42565b600282019050919050565b6000819050919050565b614aa9614aa482613364565b614a8e565b82525050565b6000614aba82614a6b565b9150614ac68285614a98565b602082019150614ad68284614a98565b6020820191508190509392505050565b7f4e487b7100000000000000000000000000000000000000000000000000000000600052602160045260246000fd5b7f45434453413a20696e76616c6964207369676e61747572650000000000000000600082015250565b6000614b4b601883613189565b9150614b5682614b15565b602082019050919050565b60006020820190508181036000830152614b7a81614b3e565b9050919050565b7f45434453413a20696e76616c6964207369676e6174757265206c656e67746800600082015250565b6000614bb7601f83613189565b9150614bc282614b81565b602082019050919050565b60006020820190508181036000830152614be681614baa565b9050919050565b7f45434453413a20696e76616c6964207369676e6174757265202773272076616c60008201527f7565000000000000000000000000000000000000000000000000000000000000602082015250565b6000614c49602283613189565b9150614c5482614bed565b604082019050919050565b60006020820190508181036000830152614c7881614c3c565b9050919050565b7f45434453413a20696e76616c6964207369676e6174757265202776272076616c60008201527f7565000000000000000000000000000000000000000000000000000000000000602082015250565b6000614cdb602283613189565b9150614ce682614c7f565b604082019050919050565b60006020820190508181036000830152614d0a81614cce565b9050919050565b600081519050919050565b600082825260208201905092915050565b6000614d3882614d11565b614d428185614d1c565b9350614d5281856020860161319a565b614d5b816131cd565b840191505092915050565b6000608082019050614d7b60008301876132ce565b614d8860208301866132ce565b614d956040830185613398565b8181036060830152614da78184614d2d565b905095945050505050565b600081519050614dc1816130ef565b92915050565b600060208284031215614ddd57614ddc6130b9565b5b6000614deb84828501614db2565b91505092915050565b600060a082019050614e09600083018861336e565b614e16602083018761336e565b614e23604083018661336e565b614e306060830185613398565b614e3d60808301846132ce565b9695505050505050565b600060ff82169050919050565b614e5d81614e47565b82525050565b6000608082019050614e78600083018761336e565b614e856020830186614e54565b614e92604083018561336e565b614e9f606083018461336e565b95945050505050565b7f4e487b7100000000000000000000000000000000000000000000000000000000600052603160045260246000fdfea26469706673582212205752bd56bb601cc06695df70b185402a0acee07bca926789edeccaf5040727be64736f6c634300080d0033",
  "linkReferences": {},
  "deployedLinkReferences": {}
}