{
  "_format": "hh-sol-artifact-1",
  "contractName": "ExpressSBT",
  "sourceName": "contracts/ExpressSBT.sol",
  "abi": [
    {
      "inputs": [
        {
          "internalType": "address",
          "name": "_approver",
          "type": "address"
        },
        {
          "internalType": "uint256[]",
          "name": "_gradeLine",
          "type": "uint256[]"
        }
      ],
      "stateMutability": "nonpayable",
      "type": "constructor"
    },
    {
      "anonymous": false,
      "inputs": [
        {
          "indexed": true,
          "internalType": "address",
          "name": "owner",
          "type": "address"
        },
        {
          "indexed": true,
          "internalType": "address",
          "name": "approved",
          "type": "address"
        },
        {
          "indexed": true,
          "internalType": "uint256",
          "name": "tokenId",
          "type": "uint256"
        }
      ],
      "name": "Approval",
      "type": "event"
    },
    {
      "anonymous": false,
      "inputs": [
        {
          "indexed": true,
          "internalType": "address",
          "name": "owner",
          "type": "address"
        },
        {
          "indexed": true,
          "internalType": "address",
          "name": "operator",
          "type": "address"
        },
        {
          "indexed": false,
          "internalType": "bool",
          "name": "approved",
          "type": "bool"
        }
      ],
      "name": "ApprovalForAll",
      "type": "event"
    },
    {
      "anonymous": false,
      "inputs": [
        {
          "indexed": true,
          "internalType": "address",
          "name": "admin",
          "type": "address"
        },
        {
          "indexed": false,
          "internalType": "address",
          "name": "newApprover",
          "type": "address"
        }
      ],
      "name": "ApproverUpdated",
      "type": "event"
    },
    {
      "anonymous": false,
      "inputs": [
        {
          "indexed": true,
          "internalType": "address",
          "name": "receiver",
          "type": "address"
        },
        {
          "indexed": true,
          "internalType": "uint256",
          "name": "tokenId",
          "type": "uint256"
        },
        {
          "indexed": false,
          "internalType": "address",
          "name": "signer",
          "type": "address"
        }
      ],
      "name": "ESBTMinted",
      "type": "event"
    },
    {
      "anonymous": false,
      "inputs": [
        {
          "indexed": true,
          "internalType": "uint256[]",
          "name": "newGradeLine",
          "type": "uint256[]"
        }
      ],
      "name": "GradeLineUpdated",
      "type": "event"
    },
    {
      "anonymous": false,
      "inputs": [
        {
          "indexed": true,
          "internalType": "uint256",
          "name": "level",
          "type": "uint256"
        },
        {
          "indexed": false,
          "internalType": "string",
          "name": "levelURI",
          "type": "string"
        }
      ],
      "name": "LevelURISet",
      "type": "event"
    },
    {
      "anonymous": false,
      "inputs": [
        {
          "indexed": true,
          "internalType": "address",
          "name": "previousOwner",
          "type": "address"
        },
        {
          "indexed": true,
          "internalType": "address",
          "name": "newOwner",
          "type": "address"
        }
      ],
      "name": "OwnershipTransferred",
      "type": "event"
    },
    {
      "anonymous": false,
      "inputs": [
        {
          "indexed": true,
          "internalType": "address",
          "name": "receiver",
          "type": "address"
        },
        {
          "indexed": true,
          "internalType": "uint256",
          "name": "tokenId",
          "type": "uint256"
        },
        {
          "indexed": false,
          "internalType": "uint256",
          "name": "expressCounter",
          "type": "uint256"
        },
        {
          "indexed": false,
          "internalType": "uint256",
          "name": "SBTLevel",
          "type": "uint256"
        },
        {
          "indexed": false,
          "internalType": "string",
          "name": "tokenURI",
          "type": "string"
        }
      ],
      "name": "StatusUpdated",
      "type": "event"
    },
    {
      "anonymous": false,
      "inputs": [
        {
          "indexed": true,
          "internalType": "address",
          "name": "from",
          "type": "address"
        },
        {
          "indexed": true,
          "internalType": "address",
          "name": "to",
          "type": "address"
        },
        {
          "indexed": true,
          "internalType": "uint256",
          "name": "tokenId",
          "type": "uint256"
        }
      ],
      "name": "Transfer",
      "type": "event"
    },
    {
      "inputs": [],
      "name": "EXPRESS_TYPEHASH",
      "outputs": [
        {
          "internalType": "bytes32",
          "name": "",
          "type": "bytes32"
        }
      ],
      "stateMutability": "view",
      "type": "function"
    },
    {
      "inputs": [
        {
          "internalType": "uint256",
          "name": "newGradeLine",
          "type": "uint256"
        }
      ],
      "name": "addLevel",
      "outputs": [],
      "stateMutability": "nonpayable",
      "type": "function"
    },
    {
      "inputs": [
        {
          "internalType": "address",
          "name": "to",
          "type": "address"
        },
        {
          "internalType": "uint256",
          "name": "tokenId",
          "type": "uint256"
        }
      ],
      "name": "approve",
      "outputs": [],
      "stateMutability": "nonpayable",
      "type": "function"
    },
    {
      "inputs": [],
      "name": "approver",
      "outputs": [
        {
          "internalType": "address",
          "name": "",
          "type": "address"
        }
      ],
      "stateMutability": "view",
      "type": "function"
    },
    {
      "inputs": [
        {
          "internalType": "address",
          "name": "owner",
          "type": "address"
        }
      ],
      "name": "balanceOf",
      "outputs": [
        {
          "internalType": "uint256",
          "name": "",
          "type": "uint256"
        }
      ],
      "stateMutability": "view",
      "type": "function"
    },
    {
      "inputs": [],
      "name": "expressGradeLine",
      "outputs": [
        {
          "internalType": "uint256[]",
          "name": "",
          "type": "uint256[]"
        }
      ],
      "stateMutability": "view",
      "type": "function"
    },
    {
      "inputs": [
        {
          "internalType": "uint256",
          "name": "tokenId",
          "type": "uint256"
        }
      ],
      "name": "expressURI",
      "outputs": [
        {
          "internalType": "string",
          "name": "",
          "type": "string"
        }
      ],
      "stateMutability": "view",
      "type": "function"
    },
    {
      "inputs": [
        {
          "internalType": "uint256",
          "name": "tokenId",
          "type": "uint256"
        }
      ],
      "name": "getApproved",
      "outputs": [
        {
          "internalType": "address",
          "name": "",
          "type": "address"
        }
      ],
      "stateMutability": "view",
      "type": "function"
    },
    {
      "inputs": [
        {
          "internalType": "uint256",
          "name": "",
          "type": "uint256"
        }
      ],
      "name": "gradeLine",
      "outputs": [
        {
          "internalType": "uint256",
          "name": "",
          "type": "uint256"
        }
      ],
      "stateMutability": "view",
      "type": "function"
    },
    {
      "inputs": [
        {
          "internalType": "address",
          "name": "owner",
          "type": "address"
        },
        {
          "internalType": "address",
          "name": "operator",
          "type": "address"
        }
      ],
      "name": "isApprovedForAll",
      "outputs": [
        {
          "internalType": "bool",
          "name": "",
          "type": "bool"
        }
      ],
      "stateMutability": "view",
      "type": "function"
    },
    {
      "inputs": [
        {
          "internalType": "address",
          "name": "receiver",
          "type": "address"
        },
        {
          "internalType": "string",
          "name": "metadataURI",
          "type": "string"
        },
        {
          "internalType": "uint256",
          "name": "expressAmount",
          "type": "uint256"
        },
        {
          "internalType": "bytes",
          "name": "signature",
          "type": "bytes"
        }
      ],
      "name": "mintExpress",
      "outputs": [],
      "stateMutability": "nonpayable",
      "type": "function"
    },
    {
      "inputs": [
        {
          "internalType": "address",
          "name": "account",
          "type": "address"
        }
      ],
      "name": "mintedLevels",
      "outputs": [
        {
          "internalType": "uint256[]",
          "name": "",
          "type": "uint256[]"
        }
      ],
      "stateMutability": "view",
      "type": "function"
    },
    {
      "inputs": [],
      "name": "name",
      "outputs": [
        {
          "internalType": "string",
          "name": "",
          "type": "string"
        }
      ],
      "stateMutability": "view",
      "type": "function"
    },
    {
      "inputs": [],
      "name": "owner",
      "outputs": [
        {
          "internalType": "address",
          "name": "",
          "type": "address"
        }
      ],
      "stateMutability": "view",
      "type": "function"
    },
    {
      "inputs": [
        {
          "internalType": "uint256",
          "name": "tokenId",
          "type": "uint256"
        }
      ],
      "name": "ownerOf",
      "outputs": [
        {
          "internalType": "address",
          "name": "",
          "type": "address"
        }
      ],
      "stateMutability": "view",
      "type": "function"
    },
    {
      "inputs": [],
      "name": "renounceOwnership",
      "outputs": [],
      "stateMutability": "nonpayable",
      "type": "function"
    },
    {
      "inputs": [
        {
          "internalType": "address",
          "name": "from",
          "type": "address"
        },
        {
          "internalType": "address",
          "name": "to",
          "type": "address"
        },
        {
          "internalType": "uint256",
          "name": "tokenId",
          "type": "uint256"
        }
      ],
      "name": "safeTransferFrom",
      "outputs": [],
      "stateMutability": "nonpayable",
      "type": "function"
    },
    {
      "inputs": [
        {
          "internalType": "address",
          "name": "from",
          "type": "address"
        },
        {
          "internalType": "address",
          "name": "to",
          "type": "address"
        },
        {
          "internalType": "uint256",
          "name": "tokenId",
          "type": "uint256"
        },
        {
          "internalType": "bytes",
          "name": "data",
          "type": "bytes"
        }
      ],
      "name": "safeTransferFrom",
      "outputs": [],
      "stateMutability": "nonpayable",
      "type": "function"
    },
    {
      "inputs": [
        {
          "internalType": "address",
          "name": "operator",
          "type": "address"
        },
        {
          "internalType": "bool",
          "name": "approved",
          "type": "bool"
        }
      ],
      "name": "setApprovalForAll",
      "outputs": [],
      "stateMutability": "nonpayable",
      "type": "function"
    },
    {
      "inputs": [
        {
          "internalType": "bytes4",
          "name": "interfaceId",
          "type": "bytes4"
        }
      ],
      "name": "supportsInterface",
      "outputs": [
        {
          "internalType": "bool",
          "name": "",
          "type": "bool"
        }
      ],
      "stateMutability": "view",
      "type": "function"
    },
    {
      "inputs": [],
      "name": "symbol",
      "outputs": [
        {
          "internalType": "string",
          "name": "",
          "type": "string"
        }
      ],
      "stateMutability": "view",
      "type": "function"
    },
    {
      "inputs": [
        {
          "internalType": "uint256",
          "name": "index",
          "type": "uint256"
        }
      ],
      "name": "tokenByIndex",
      "outputs": [
        {
          "internalType": "uint256",
          "name": "",
          "type": "uint256"
        }
      ],
      "stateMutability": "view",
      "type": "function"
    },
    {
      "inputs": [
        {
          "internalType": "uint256",
          "name": "tokenId",
          "type": "uint256"
        }
      ],
      "name": "tokenLevel",
      "outputs": [
        {
          "internalType": "uint256",
          "name": "",
          "type": "uint256"
        }
      ],
      "stateMutability": "view",
      "type": "function"
    },
    {
      "inputs": [
        {
          "internalType": "address",
          "name": "owner",
          "type": "address"
        },
        {
          "internalType": "uint256",
          "name": "index",
          "type": "uint256"
        }
      ],
      "name": "tokenOfOwnerByIndex",
      "outputs": [
        {
          "internalType": "uint256",
          "name": "",
          "type": "uint256"
        }
      ],
      "stateMutability": "view",
      "type": "function"
    },
    {
      "inputs": [
        {
          "internalType": "uint256",
          "name": "tokenId",
          "type": "uint256"
        }
      ],
      "name": "tokenURI",
      "outputs": [
        {
          "internalType": "string",
          "name": "",
          "type": "string"
        }
      ],
      "stateMutability": "view",
      "type": "function"
    },
    {
      "inputs": [],
      "name": "totalSupply",
      "outputs": [
        {
          "internalType": "uint256",
          "name": "",
          "type": "uint256"
        }
      ],
      "stateMutability": "view",
      "type": "function"
    },
    {
      "inputs": [
        {
          "internalType": "address",
          "name": "from",
          "type": "address"
        },
        {
          "internalType": "address",
          "name": "to",
          "type": "address"
        },
        {
          "internalType": "uint256",
          "name": "tokenId",
          "type": "uint256"
        }
      ],
      "name": "transferFrom",
      "outputs": [],
      "stateMutability": "nonpayable",
      "type": "function"
    },
    {
      "inputs": [
        {
          "internalType": "address",
          "name": "newOwner",
          "type": "address"
        }
      ],
      "name": "transferOwnership",
      "outputs": [],
      "stateMutability": "nonpayable",
      "type": "function"
    },
    {
      "inputs": [
        {
          "internalType": "address",
          "name": "_newApprover",
          "type": "address"
        }
      ],
      "name": "updateApprover",
      "outputs": [],
      "stateMutability": "nonpayable",
      "type": "function"
    },
    {
      "inputs": [
        {
          "internalType": "uint256",
          "name": "level",
          "type": "uint256"
        },
        {
          "internalType": "string",
          "name": "newURI",
          "type": "string"
        }
      ],
      "name": "updateSBTURI",
      "outputs": [],
      "stateMutability": "nonpayable",
      "type": "function"
    },
    {
      "inputs": [
        {
          "internalType": "string[]",
          "name": "newURIs",
          "type": "string[]"
        }
      ],
      "name": "updateSBTURIs",
      "outputs": [],
      "stateMutability": "nonpayable",
      "type": "function"
    }
  ],
  "bytecode": "0x6101406040523480156200001257600080fd5b50604051620059f0380380620059f083398181016040528101906200003891906200058e565b6040518060400160405280600a81526020017f45787072657373534254000000000000000000000000000000000000000000008152506040518060400160405280600481526020017f45534254000000000000000000000000000000000000000000000000000000008152506040518060400160405280600a81526020017f45787072657373534254000000000000000000000000000000000000000000008152506040518060400160405280600181526020017f310000000000000000000000000000000000000000000000000000000000000081525060008280519060200120905060008280519060200120905060007f8b73c3c69bb8fe3d512ecc4cf759cc79239f7b179b0ffacaa9a75d522b39400f90508260e081815250508161010081815250504660a08181525050620001798184846200027360201b60201c565b608081815250503073ffffffffffffffffffffffffffffffffffffffff1660c08173ffffffffffffffffffffffffffffffffffffffff1660601b8152505080610120818152505050505050508160009080519060200190620001dd9291906200040e565b508060019080519060200190620001f69291906200040e565b505050620002196200020d620002af60201b60201c565b620002b760201b60201c565b6200022a816200037d60201b60201c565b81600c60006101000a81548173ffffffffffffffffffffffffffffffffffffffff021916908373ffffffffffffffffffffffffffffffffffffffff1602179055505050620008a4565b60008383834630604051602001620002909594939291906200061b565b6040516020818303038152906040528051906020012090509392505050565b600033905090565b6000600a60009054906101000a900473ffffffffffffffffffffffffffffffffffffffff16905081600a60006101000a81548173ffffffffffffffffffffffffffffffffffffffff021916908373ffffffffffffffffffffffffffffffffffffffff1602179055508173ffffffffffffffffffffffffffffffffffffffff168173ffffffffffffffffffffffffffffffffffffffff167f8be0079c531659141344cd1fd0a4f28419497f9722a3daafe3b4186f6b6457e060405160405180910390a35050565b60005b81518110156200040a576012828281518110620003c6577f4e487b7100000000000000000000000000000000000000000000000000000000600052603260045260246000fd5b602002602001015190806001815401808255809150506001900390600052602060002001600090919091909150558080620004019062000784565b91505062000380565b5050565b8280546200041c9062000718565b90600052602060002090601f0160209004810192826200044057600085556200048c565b82601f106200045b57805160ff19168380011785556200048c565b828001600101855582156200048c579182015b828111156200048b5782518255916020019190600101906200046e565b5b5090506200049b91906200049f565b5090565b5b80821115620004ba576000816000905550600101620004a0565b5090565b6000620004d5620004cf84620006a1565b62000678565b90508083825260208201905082856020860282011115620004f557600080fd5b60005b858110156200052957816200050e888262000577565b845260208401935060208301925050600181019050620004f8565b5050509392505050565b600081519050620005448162000870565b92915050565b600082601f8301126200055c57600080fd5b81516200056e848260208601620004be565b91505092915050565b60008151905062000588816200088a565b92915050565b60008060408385031215620005a257600080fd5b6000620005b28582860162000533565b925050602083015167ffffffffffffffff811115620005d057600080fd5b620005de858286016200054a565b9150509250929050565b620005f381620006d0565b82525050565b6200060481620006e4565b82525050565b62000615816200070e565b82525050565b600060a082019050620006326000830188620005f9565b620006416020830187620005f9565b620006506040830186620005f9565b6200065f60608301856200060a565b6200066e6080830184620005e8565b9695505050505050565b60006200068462000697565b90506200069282826200074e565b919050565b6000604051905090565b600067ffffffffffffffff821115620006bf57620006be62000830565b5b602082029050602081019050919050565b6000620006dd82620006ee565b9050919050565b6000819050919050565b600073ffffffffffffffffffffffffffffffffffffffff82169050919050565b6000819050919050565b600060028204905060018216806200073157607f821691505b6020821081141562000748576200074762000801565b5b50919050565b62000759826200085f565b810181811067ffffffffffffffff821117156200077b576200077a62000830565b5b80604052505050565b600062000791826200070e565b91507fffffffffffffffffffffffffffffffffffffffffffffffffffffffffffffffff821415620007c757620007c6620007d2565b5b600182019050919050565b7f4e487b7100000000000000000000000000000000000000000000000000000000600052601160045260246000fd5b7f4e487b7100000000000000000000000000000000000000000000000000000000600052602260045260246000fd5b7f4e487b7100000000000000000000000000000000000000000000000000000000600052604160045260246000fd5b6000601f19601f8301169050919050565b6200087b81620006d0565b81146200088757600080fd5b50565b62000895816200070e565b8114620008a157600080fd5b50565b60805160a05160c05160601c60e05161010051610120516150f9620008f760003960006126a9015260006126eb015260006126ca015260006125ff015260006126550152600061267e01526150f96000f3fe608060405234801561001057600080fd5b50600436106101e55760003560e01c80636009fe9d1161010f578063a22cb465116100a2578063c87b56dd11610071578063c87b56dd146105a2578063d389dc0a146105d2578063e985e9c5146105ee578063f2fde38b1461061e576101e5565b8063a22cb4651461051e578063ab8ece8b1461053a578063b88d4fde1461056a578063bd7da65414610586576101e5565b8063889b93f7116100de578063889b93f7146104a85780638da5cb5b146104c657806395d89b41146104e45780639c0e08d514610502576101e5565b80636009fe9d1461040e5780636352211e1461043e57806370a082311461046e578063715018a61461049e576101e5565b806323b872dd1161018757806335f16d811161015657806335f16d81146103765780633a1ad046146103a657806342842e0e146103c25780634f6ccce7146103de576101e5565b806323b872dd146102de5780632ce74b33146102fa5780632f745c591461031657806331f0fb5114610346576101e5565b8063095ea7b3116101c3578063095ea7b314610268578063140fd30b14610284578063141a8dd8146102a257806318160ddd146102c0576101e5565b806301ffc9a7146101ea57806306fdde031461021a578063081812fc14610238575b600080fd5b61020460048036038101906101ff919061385c565b61063a565b6040516102119190614001565b60405180910390f35b6102226106b4565b60405161022f9190614114565b60405180910390f35b610252600480360381019061024d91906138ae565b610746565b60405161025f9190613f78565b60405180910390f35b610282600480360381019061027d91906137df565b61078c565b005b61028c6108a4565b604051610299919061401c565b60405180910390f35b6102aa6108c8565b6040516102b79190613f78565b60405180910390f35b6102c86108ee565b6040516102d591906144d6565b60405180910390f35b6102f860048036038101906102f39190613641565b6108fb565b005b610314600480360381019061030f919061381b565b61095b565b005b610330600480360381019061032b91906137df565b610a18565b60405161033d91906144d6565b60405180910390f35b610360600480360381019061035b91906138ae565b610abd565b60405161036d9190614114565b60405180910390f35b610390600480360381019061038b91906135dc565b610bbd565b60405161039d9190613fdf565b60405180910390f35b6103c060048036038101906103bb91906138ae565b610c54565b005b6103dc60048036038101906103d79190613641565b610d62565b005b6103f860048036038101906103f391906138ae565b610d82565b60405161040591906144d6565b60405180910390f35b610428600480360381019061042391906138ae565b610e19565b60405161043591906144d6565b60405180910390f35b610458600480360381019061045391906138ae565b610e3d565b6040516104659190613f78565b60405180910390f35b610488600480360381019061048391906135dc565b610eef565b60405161049591906144d6565b60405180910390f35b6104a6610fa7565b005b6104b0610fbb565b6040516104bd9190613fdf565b60405180910390f35b6104ce611013565b6040516104db9190613f78565b60405180910390f35b6104ec61103d565b6040516104f99190614114565b60405180910390f35b61051c60048036038101906105179190613747565b6110cf565b005b6105386004803603810190610533919061370b565b611314565b005b610554600480360381019061054f91906138ae565b61132a565b60405161056191906144d6565b60405180910390f35b610584600480360381019061057f9190613690565b61138f565b005b6105a0600480360381019061059b91906135dc565b6113f1565b005b6105bc60048036038101906105b791906138ae565b6114fb565b6040516105c99190614114565b60405180910390f35b6105ec60048036038101906105e791906138d7565b6115e8565b005b61060860048036038101906106039190613605565b6116dc565b6040516106159190614001565b60405180910390f35b610638600480360381019061063391906135dc565b611770565b005b60007f780e9d63000000000000000000000000000000000000000000000000000000007bffffffffffffffffffffffffffffffffffffffffffffffffffffffff1916827bffffffffffffffffffffffffffffffffffffffffffffffffffffffff191614806106ad57506106ac826117f4565b5b9050919050565b6060600080546106c3906147f7565b80601f01602080910402602001604051908101604052809291908181526020018280546106ef906147f7565b801561073c5780601f106107115761010080835404028352916020019161073c565b820191906000526020600020905b81548152906001019060200180831161071f57829003601f168201915b5050505050905090565b6000610751826118d6565b6004600083815260200190815260200160002060009054906101000a900473ffffffffffffffffffffffffffffffffffffffff169050919050565b600061079782610e3d565b90508073ffffffffffffffffffffffffffffffffffffffff168373ffffffffffffffffffffffffffffffffffffffff161415610808576040517f08c379a00000000000000000000000000000000000000000000000000000000081526004016107ff90614436565b60405180910390fd5b8073ffffffffffffffffffffffffffffffffffffffff16610827611921565b73ffffffffffffffffffffffffffffffffffffffff161480610856575061085581610850611921565b6116dc565b5b610895576040517f08c379a000000000000000000000000000000000000000000000000000000000815260040161088c90614376565b60405180910390fd5b61089f8383611929565b505050565b7f54c1e20f7e5687f15165313fa4945b2267e902bfd68f39cbd14f3440929fb05c81565b600c60009054906101000a900473ffffffffffffffffffffffffffffffffffffffff1681565b6000600880549050905090565b61090c610906611921565b826119e2565b61094b576040517f08c379a0000000000000000000000000000000000000000000000000000000008152600401610942906144b6565b60405180910390fd5b610956838383611a77565b505050565b610963611cde565b6012805490508151146109ab576040517f08c379a00000000000000000000000000000000000000000000000000000000081526004016109a290614496565b60405180910390fd5b60005b8151811015610a1457610a01818383815181106109f4577f4e487b7100000000000000000000000000000000000000000000000000000000600052603260045260246000fd5b60200260200101516115e8565b8080610a0c90614874565b9150506109ae565b5050565b6000610a2383610eef565b8210610a64576040517f08c379a0000000000000000000000000000000000000000000000000000000008152600401610a5b906141b6565b60405180910390fd5b600660008473ffffffffffffffffffffffffffffffffffffffff1673ffffffffffffffffffffffffffffffffffffffff168152602001908152602001600020600083815260200190815260200160002054905092915050565b6060610ac882611d5c565b610b07576040517f08c379a0000000000000000000000000000000000000000000000000000000008152600401610afe90614196565b60405180910390fd5b60106000600f60008581526020019081526020016000205481526020019081526020016000208054610b38906147f7565b80601f0160208091040260200160405190810160405280929190818152602001828054610b64906147f7565b8015610bb15780601f10610b8657610100808354040283529160200191610bb1565b820191906000526020600020905b815481529060010190602001808311610b9457829003601f168201915b50505050509050919050565b6060601160008373ffffffffffffffffffffffffffffffffffffffff1673ffffffffffffffffffffffffffffffffffffffff168152602001908152602001600020805480602002602001604051908101604052809291908181526020018280548015610c4857602002820191906000526020600020905b815481526020019060010190808311610c34575b50505050509050919050565b610c5c611cde565b60126001601280549050610c7091906146ec565b81548110610ca7577f4e487b7100000000000000000000000000000000000000000000000000000000600052603260045260246000fd5b90600052602060002001548111610cf3576040517f08c379a0000000000000000000000000000000000000000000000000000000008152600401610cea90614316565b60405180910390fd5b60128190806001815401808255809150506001900390600052602060002001600090919091909150556012604051610d2b9190613f2a565b60405180910390207fa9f8292c2baba9576b4ca7758578af15b32ed84e34a00c79eeb07fbf29a3059960405160405180910390a250565b610d7d8383836040518060200160405280600081525061138f565b505050565b6000610d8c6108ee565b8210610dcd576040517f08c379a0000000000000000000000000000000000000000000000000000000008152600401610dc490614476565b60405180910390fd5b60088281548110610e07577f4e487b7100000000000000000000000000000000000000000000000000000000600052603260045260246000fd5b90600052602060002001549050919050565b60128181548110610e2957600080fd5b906000526020600020016000915090505481565b6000806002600084815260200190815260200160002060009054906101000a900473ffffffffffffffffffffffffffffffffffffffff169050600073ffffffffffffffffffffffffffffffffffffffff168173ffffffffffffffffffffffffffffffffffffffff161415610ee6576040517f08c379a0000000000000000000000000000000000000000000000000000000008152600401610edd90614416565b60405180910390fd5b80915050919050565b60008073ffffffffffffffffffffffffffffffffffffffff168273ffffffffffffffffffffffffffffffffffffffff161415610f60576040517f08c379a0000000000000000000000000000000000000000000000000000000008152600401610f5790614336565b60405180910390fd5b600360008373ffffffffffffffffffffffffffffffffffffffff1673ffffffffffffffffffffffffffffffffffffffff168152602001908152602001600020549050919050565b610faf611cde565b610fb96000611dc8565b565b6060601280548060200260200160405190810160405280929190818152602001828054801561100957602002820191906000526020600020905b815481526020019060010190808311610ff5575b5050505050905090565b6000600a60009054906101000a900473ffffffffffffffffffffffffffffffffffffffff16905090565b60606001805461104c906147f7565b80601f0160208091040260200160405190810160405280929190818152602001828054611078906147f7565b80156110c55780601f1061109a576101008083540402835291602001916110c5565b820191906000526020600020905b8154815290600101906020018083116110a857829003601f168201915b5050505050905090565b60007f54c1e20f7e5687f15165313fa4945b2267e902bfd68f39cbd14f3440929fb05c8686805190602001208660405160200161110f9493929190614037565b604051602081830303815290604052805190602001209050600061113282611e8e565b905060006111848286868080601f016020809104026020016040519081016040528093929190818152602001838380828437600081840152601f19601f82011690508083019250505050505050611ea8565b9050600c60009054906101000a900473ffffffffffffffffffffffffffffffffffffffff1673ffffffffffffffffffffffffffffffffffffffff168173ffffffffffffffffffffffffffffffffffffffff1614611216576040517f08c379a000000000000000000000000000000000000000000000000000000000815260040161120d90614256565b60405180910390fd5b6000806112238a89611ecf565b9150915081611267576040517f08c379a000000000000000000000000000000000000000000000000000000000815260040161125e90614276565b60405180910390fd5b6000611273600b612002565b905061127f600b612010565b61128c8b828b8d86612026565b6112968b8261216a565b808b73ffffffffffffffffffffffffffffffffffffffff167f294e3e82e412705840b3f7b620141fbb32a2a18df37cc8190844aefe059e5ec5600c60009054906101000a900473ffffffffffffffffffffffffffffffffffffffff166040516112ff9190613f78565b60405180910390a35050505050505050505050565b61132661131f611921565b8383612344565b5050565b600061133582611d5c565b611374576040517f08c379a000000000000000000000000000000000000000000000000000000000815260040161136b90614196565b60405180910390fd5b600f6000838152602001908152602001600020549050919050565b6113a061139a611921565b836119e2565b6113df576040517f08c379a00000000000000000000000000000000000000000000000000000000081526004016113d6906144b6565b60405180910390fd5b6113eb848484846124b1565b50505050565b6113f9611cde565b600073ffffffffffffffffffffffffffffffffffffffff168173ffffffffffffffffffffffffffffffffffffffff161415611469576040517f08c379a000000000000000000000000000000000000000000000000000000000815260040161146090614156565b60405180910390fd5b80600c60006101000a81548173ffffffffffffffffffffffffffffffffffffffff021916908373ffffffffffffffffffffffffffffffffffffffff1602179055503373ffffffffffffffffffffffffffffffffffffffff167f1197dc1d7408bbfd5e44c98c35314d9acf9f8611f4d87037f0614922404d8afd826040516114f09190613f78565b60405180910390a250565b606061150682611d5c565b611545576040517f08c379a000000000000000000000000000000000000000000000000000000000815260040161153c90614196565b60405180910390fd5b600d60008381526020019081526020016000208054611563906147f7565b80601f016020809104026020016040519081016040528092919081815260200182805461158f906147f7565b80156115dc5780601f106115b1576101008083540402835291602001916115dc565b820191906000526020600020905b8154815290600101906020018083116115bf57829003601f168201915b50505050509050919050565b6115f0611cde565b60006012838154811061162c577f4e487b7100000000000000000000000000000000000000000000000000000000600052603260045260246000fd5b90600052602060002001541415611678576040517f08c379a000000000000000000000000000000000000000000000000000000000815260040161166f90614456565b60405180910390fd5b8060106000848152602001908152602001600020908051906020019061169f929190613306565b50817f381e6a929c22b30d336d15bdfb023ed697c3538418e53dd4b9703e5429529761826040516116d09190614114565b60405180910390a25050565b6000600560008473ffffffffffffffffffffffffffffffffffffffff1673ffffffffffffffffffffffffffffffffffffffff16815260200190815260200160002060008373ffffffffffffffffffffffffffffffffffffffff1673ffffffffffffffffffffffffffffffffffffffff16815260200190815260200160002060009054906101000a900460ff16905092915050565b611778611cde565b600073ffffffffffffffffffffffffffffffffffffffff168173ffffffffffffffffffffffffffffffffffffffff1614156117e8576040517f08c379a00000000000000000000000000000000000000000000000000000000081526004016117df906141f6565b60405180910390fd5b6117f181611dc8565b50565b60007f80ac58cd000000000000000000000000000000000000000000000000000000007bffffffffffffffffffffffffffffffffffffffffffffffffffffffff1916827bffffffffffffffffffffffffffffffffffffffffffffffffffffffff191614806118bf57507f5b5e139f000000000000000000000000000000000000000000000000000000007bffffffffffffffffffffffffffffffffffffffffffffffffffffffff1916827bffffffffffffffffffffffffffffffffffffffffffffffffffffffff1916145b806118cf57506118ce8261250d565b5b9050919050565b6118df81611d5c565b61191e576040517f08c379a000000000000000000000000000000000000000000000000000000000815260040161191590614416565b60405180910390fd5b50565b600033905090565b816004600083815260200190815260200160002060006101000a81548173ffffffffffffffffffffffffffffffffffffffff021916908373ffffffffffffffffffffffffffffffffffffffff160217905550808273ffffffffffffffffffffffffffffffffffffffff1661199c83610e3d565b73ffffffffffffffffffffffffffffffffffffffff167f8c5be1e5ebec7d5bd14f71427d1e84f3dd0314c0f7b2291e5b200ac8c7c3b92560405160405180910390a45050565b6000806119ee83610e3d565b90508073ffffffffffffffffffffffffffffffffffffffff168473ffffffffffffffffffffffffffffffffffffffff161480611a305750611a2f81856116dc565b5b80611a6e57508373ffffffffffffffffffffffffffffffffffffffff16611a5684610746565b73ffffffffffffffffffffffffffffffffffffffff16145b91505092915050565b8273ffffffffffffffffffffffffffffffffffffffff16611a9782610e3d565b73ffffffffffffffffffffffffffffffffffffffff1614611aed576040517f08c379a0000000000000000000000000000000000000000000000000000000008152600401611ae490614216565b60405180910390fd5b600073ffffffffffffffffffffffffffffffffffffffff168273ffffffffffffffffffffffffffffffffffffffff161415611b5d576040517f08c379a0000000000000000000000000000000000000000000000000000000008152600401611b54906142b6565b60405180910390fd5b611b68838383612577565b611b73600082611929565b6001600360008573ffffffffffffffffffffffffffffffffffffffff1673ffffffffffffffffffffffffffffffffffffffff1681526020019081526020016000206000828254611bc391906146ec565b925050819055506001600360008473ffffffffffffffffffffffffffffffffffffffff1673ffffffffffffffffffffffffffffffffffffffff1681526020019081526020016000206000828254611c1a9190614696565b92505081905550816002600083815260200190815260200160002060006101000a81548173ffffffffffffffffffffffffffffffffffffffff021916908373ffffffffffffffffffffffffffffffffffffffff160217905550808273ffffffffffffffffffffffffffffffffffffffff168473ffffffffffffffffffffffffffffffffffffffff167fddf252ad1be2c89b69c2b068fc378daa952ba7f163c4a11628f55a4df523b3ef60405160405180910390a4611cd98383836125f6565b505050565b611ce6611921565b73ffffffffffffffffffffffffffffffffffffffff16611d04611013565b73ffffffffffffffffffffffffffffffffffffffff1614611d5a576040517f08c379a0000000000000000000000000000000000000000000000000000000008152600401611d51906143d6565b60405180910390fd5b565b60008073ffffffffffffffffffffffffffffffffffffffff166002600084815260200190815260200160002060009054906101000a900473ffffffffffffffffffffffffffffffffffffffff1673ffffffffffffffffffffffffffffffffffffffff1614159050919050565b6000600a60009054906101000a900473ffffffffffffffffffffffffffffffffffffffff16905081600a60006101000a81548173ffffffffffffffffffffffffffffffffffffffff021916908373ffffffffffffffffffffffffffffffffffffffff1602179055508173ffffffffffffffffffffffffffffffffffffffff168173ffffffffffffffffffffffffffffffffffffffff167f8be0079c531659141344cd1fd0a4f28419497f9722a3daafe3b4186f6b6457e060405160405180910390a35050565b6000611ea1611e9b6125fb565b83612715565b9050919050565b6000806000611eb78585612748565b91509150611ec48161279a565b819250505092915050565b6000806000611edd85610eef565b90506000611eea86610bbd565b9050601280549050821415611f34576040517f08c379a0000000000000000000000000000000000000000000000000000000008152600401611f2b906143f6565b60405180910390fd5b6000611f3f86612aeb565b90506000825114611fee5760005b8251811015611fec5781838281518110611f90577f4e487b7100000000000000000000000000000000000000000000000000000000600052603260045260246000fd5b60200260200101511415611fd9576040517f08c379a0000000000000000000000000000000000000000000000000000000008152600401611fd090614296565b60405180910390fd5b8080611fe490614874565b915050611f4d565b505b600081141594508093505050509250929050565b600081600001549050919050565b6001816000016000828254019250508190555050565b82600e60008773ffffffffffffffffffffffffffffffffffffffff1673ffffffffffffffffffffffffffffffffffffffff1681526020019081526020016000208190555081600d60008681526020019081526020016000209080519060200190612091929190613306565b5080600f600086815260200190815260200160002081905550601160008673ffffffffffffffffffffffffffffffffffffffff1673ffffffffffffffffffffffffffffffffffffffff168152602001908152602001600020819080600181540180825580915050600190039060005260206000200160009091909190915055838573ffffffffffffffffffffffffffffffffffffffff167fbcb7eeaf829a6db78f151b966bef6fb8b1d289adec57ccdacfc40e47cfdc6b3685848660405161215b939291906144f1565b60405180910390a35050505050565b600073ffffffffffffffffffffffffffffffffffffffff168273ffffffffffffffffffffffffffffffffffffffff1614156121da576040517f08c379a00000000000000000000000000000000000000000000000000000000081526004016121d190614396565b60405180910390fd5b6121e381611d5c565b15612223576040517f08c379a000000000000000000000000000000000000000000000000000000000815260040161221a90614236565b60405180910390fd5b61222f60008383612577565b6001600360008473ffffffffffffffffffffffffffffffffffffffff1673ffffffffffffffffffffffffffffffffffffffff168152602001908152602001600020600082825461227f9190614696565b92505081905550816002600083815260200190815260200160002060006101000a81548173ffffffffffffffffffffffffffffffffffffffff021916908373ffffffffffffffffffffffffffffffffffffffff160217905550808273ffffffffffffffffffffffffffffffffffffffff16600073ffffffffffffffffffffffffffffffffffffffff167fddf252ad1be2c89b69c2b068fc378daa952ba7f163c4a11628f55a4df523b3ef60405160405180910390a4612340600083836125f6565b5050565b8173ffffffffffffffffffffffffffffffffffffffff168373ffffffffffffffffffffffffffffffffffffffff1614156123b3576040517f08c379a00000000000000000000000000000000000000000000000000000000081526004016123aa906142d6565b60405180910390fd5b80600560008573ffffffffffffffffffffffffffffffffffffffff1673ffffffffffffffffffffffffffffffffffffffff16815260200190815260200160002060008473ffffffffffffffffffffffffffffffffffffffff1673ffffffffffffffffffffffffffffffffffffffff16815260200190815260200160002060006101000a81548160ff0219169083151502179055508173ffffffffffffffffffffffffffffffffffffffff168373ffffffffffffffffffffffffffffffffffffffff167f17307eab39ab6107e8899845ad3d59bd9653f200f220920489ca2b5937696c31836040516124a49190614001565b60405180910390a3505050565b6124bc848484611a77565b6124c884848484612b74565b612507576040517f08c379a00000000000000000000000000000000000000000000000000000000081526004016124fe906141d6565b60405180910390fd5b50505050565b60007f01ffc9a7000000000000000000000000000000000000000000000000000000007bffffffffffffffffffffffffffffffffffffffffffffffffffffffff1916827bffffffffffffffffffffffffffffffffffffffffffffffffffffffff1916149050919050565b600073ffffffffffffffffffffffffffffffffffffffff168373ffffffffffffffffffffffffffffffffffffffff16146125e6576040517f08c379a00000000000000000000000000000000000000000000000000000000081526004016125dd906143b6565b60405180910390fd5b6125f1838383612d0b565b505050565b505050565b60007f000000000000000000000000000000000000000000000000000000000000000073ffffffffffffffffffffffffffffffffffffffff163073ffffffffffffffffffffffffffffffffffffffff1614801561267757507f000000000000000000000000000000000000000000000000000000000000000046145b156126a4577f00000000000000000000000000000000000000000000000000000000000000009050612712565b61270f7f00000000000000000000000000000000000000000000000000000000000000007f00000000000000000000000000000000000000000000000000000000000000007f0000000000000000000000000000000000000000000000000000000000000000612e1f565b90505b90565b6000828260405160200161272a929190613f41565b60405160208183030381529060405280519060200120905092915050565b60008060418351141561278a5760008060006020860151925060408601519150606086015160001a905061277e87828585612e59565b94509450505050612793565b60006002915091505b9250929050565b600060048111156127d4577f4e487b7100000000000000000000000000000000000000000000000000000000600052602160045260246000fd5b81600481111561280d577f4e487b7100000000000000000000000000000000000000000000000000000000600052602160045260246000fd5b141561281857612ae8565b60016004811115612852577f4e487b7100000000000000000000000000000000000000000000000000000000600052602160045260246000fd5b81600481111561288b577f4e487b7100000000000000000000000000000000000000000000000000000000600052602160045260246000fd5b14156128cc576040517f08c379a00000000000000000000000000000000000000000000000000000000081526004016128c390614136565b60405180910390fd5b60026004811115612906577f4e487b7100000000000000000000000000000000000000000000000000000000600052602160045260246000fd5b81600481111561293f577f4e487b7100000000000000000000000000000000000000000000000000000000600052602160045260246000fd5b1415612980576040517f08c379a000000000000000000000000000000000000000000000000000000000815260040161297790614176565b60405180910390fd5b600360048111156129ba577f4e487b7100000000000000000000000000000000000000000000000000000000600052602160045260246000fd5b8160048111156129f3577f4e487b7100000000000000000000000000000000000000000000000000000000600052602160045260246000fd5b1415612a34576040517f08c379a0000000000000000000000000000000000000000000000000000000008152600401612a2b906142f6565b60405180910390fd5b600480811115612a6d577f4e487b7100000000000000000000000000000000000000000000000000000000600052602160045260246000fd5b816004811115612aa6577f4e487b7100000000000000000000000000000000000000000000000000000000600052602160045260246000fd5b1415612ae7576040517f08c379a0000000000000000000000000000000000000000000000000000000008152600401612ade90614356565b60405180910390fd5b5b50565b600080600090505b601280549050811015612b6e5760128181548110612b3a577f4e487b7100000000000000000000000000000000000000000000000000000000600052603260045260246000fd5b90600052602060002001548310612b5b57600181612b589190614696565b91505b8080612b6690614874565b915050612af3565b50919050565b6000612b958473ffffffffffffffffffffffffffffffffffffffff16612f66565b15612cfe578373ffffffffffffffffffffffffffffffffffffffff1663150b7a02612bbe611921565b8786866040518563ffffffff1660e01b8152600401612be09493929190613f93565b602060405180830381600087803b158015612bfa57600080fd5b505af1925050508015612c2b57506040513d601f19601f82011682018060405250810190612c289190613885565b60015b612cae573d8060008114612c5b576040519150601f19603f3d011682016040523d82523d6000602084013e612c60565b606091505b50600081511415612ca6576040517f08c379a0000000000000000000000000000000000000000000000000000000008152600401612c9d906141d6565b60405180910390fd5b805181602001fd5b63150b7a0260e01b7bffffffffffffffffffffffffffffffffffffffffffffffffffffffff1916817bffffffffffffffffffffffffffffffffffffffffffffffffffffffff191614915050612d03565b600190505b949350505050565b612d16838383612f89565b600073ffffffffffffffffffffffffffffffffffffffff168373ffffffffffffffffffffffffffffffffffffffff161415612d5957612d5481612f8e565b612d98565b8173ffffffffffffffffffffffffffffffffffffffff168373ffffffffffffffffffffffffffffffffffffffff1614612d9757612d968382612fd7565b5b5b600073ffffffffffffffffffffffffffffffffffffffff168273ffffffffffffffffffffffffffffffffffffffff161415612ddb57612dd681613144565b612e1a565b8273ffffffffffffffffffffffffffffffffffffffff168273ffffffffffffffffffffffffffffffffffffffff1614612e1957612e188282613287565b5b5b505050565b60008383834630604051602001612e3a95949392919061407c565b6040516020818303038152906040528051906020012090509392505050565b6000807f7fffffffffffffffffffffffffffffff5d576e7357a4501ddfe92f46681b20a08360001c1115612e94576000600391509150612f5d565b601b8560ff1614158015612eac5750601c8560ff1614155b15612ebe576000600491509150612f5d565b600060018787878760405160008152602001604052604051612ee394939291906140cf565b6020604051602081039080840390855afa158015612f05573d6000803e3d6000fd5b505050602060405103519050600073ffffffffffffffffffffffffffffffffffffffff168173ffffffffffffffffffffffffffffffffffffffff161415612f5457600060019250925050612f5d565b80600092509250505b94509492505050565b6000808273ffffffffffffffffffffffffffffffffffffffff163b119050919050565b505050565b6008805490506009600083815260200190815260200160002081905550600881908060018154018082558091505060019003906000526020600020016000909190919091505550565b60006001612fe484610eef565b612fee91906146ec565b90506000600760008481526020019081526020016000205490508181146130d3576000600660008673ffffffffffffffffffffffffffffffffffffffff1673ffffffffffffffffffffffffffffffffffffffff168152602001908152602001600020600084815260200190815260200160002054905080600660008773ffffffffffffffffffffffffffffffffffffffff1673ffffffffffffffffffffffffffffffffffffffff168152602001908152602001600020600084815260200190815260200160002081905550816007600083815260200190815260200160002081905550505b6007600084815260200190815260200160002060009055600660008573ffffffffffffffffffffffffffffffffffffffff1673ffffffffffffffffffffffffffffffffffffffff16815260200190815260200160002060008381526020019081526020016000206000905550505050565b6000600160088054905061315891906146ec565b90506000600960008481526020019081526020016000205490506000600883815481106131ae577f4e487b7100000000000000000000000000000000000000000000000000000000600052603260045260246000fd5b9060005260206000200154905080600883815481106131f6577f4e487b7100000000000000000000000000000000000000000000000000000000600052603260045260246000fd5b90600052602060002001819055508160096000838152602001908152602001600020819055506009600085815260200190815260200160002060009055600880548061326b577f4e487b7100000000000000000000000000000000000000000000000000000000600052603160045260246000fd5b6001900381819060005260206000200160009055905550505050565b600061329283610eef565b905081600660008573ffffffffffffffffffffffffffffffffffffffff1673ffffffffffffffffffffffffffffffffffffffff168152602001908152602001600020600083815260200190815260200160002081905550806007600084815260200190815260200160002081905550505050565b828054613312906147f7565b90600052602060002090601f016020900481019282613334576000855561337b565b82601f1061334d57805160ff191683800117855561337b565b8280016001018555821561337b579182015b8281111561337a57825182559160200191906001019061335f565b5b509050613388919061338c565b5090565b5b808211156133a557600081600090555060010161338d565b5090565b60006133bc6133b784614554565b61452f565b905080838252602082019050828560208602820111156133db57600080fd5b60005b8581101561342557813567ffffffffffffffff8111156133fd57600080fd5b80860161340a898261359d565b855260208501945060208401935050506001810190506133de565b5050509392505050565b600061344261343d84614580565b61452f565b90508281526020810184848401111561345a57600080fd5b6134658482856147b5565b509392505050565b600061348061347b846145b1565b61452f565b90508281526020810184848401111561349857600080fd5b6134a38482856147b5565b509392505050565b6000813590506134ba81615067565b92915050565b600082601f8301126134d157600080fd5b81356134e18482602086016133a9565b91505092915050565b6000813590506134f98161507e565b92915050565b60008135905061350e81615095565b92915050565b60008151905061352381615095565b92915050565b60008083601f84011261353b57600080fd5b8235905067ffffffffffffffff81111561355457600080fd5b60208301915083600182028301111561356c57600080fd5b9250929050565b600082601f83011261358457600080fd5b813561359484826020860161342f565b91505092915050565b600082601f8301126135ae57600080fd5b81356135be84826020860161346d565b91505092915050565b6000813590506135d6816150ac565b92915050565b6000602082840312156135ee57600080fd5b60006135fc848285016134ab565b91505092915050565b6000806040838503121561361857600080fd5b6000613626858286016134ab565b9250506020613637858286016134ab565b9150509250929050565b60008060006060848603121561365657600080fd5b6000613664868287016134ab565b9350506020613675868287016134ab565b9250506040613686868287016135c7565b9150509250925092565b600080600080608085870312156136a657600080fd5b60006136b4878288016134ab565b94505060206136c5878288016134ab565b93505060406136d6878288016135c7565b925050606085013567ffffffffffffffff8111156136f357600080fd5b6136ff87828801613573565b91505092959194509250565b6000806040838503121561371e57600080fd5b600061372c858286016134ab565b925050602061373d858286016134ea565b9150509250929050565b60008060008060006080868803121561375f57600080fd5b600061376d888289016134ab565b955050602086013567ffffffffffffffff81111561378a57600080fd5b6137968882890161359d565b94505060406137a7888289016135c7565b935050606086013567ffffffffffffffff8111156137c457600080fd5b6137d088828901613529565b92509250509295509295909350565b600080604083850312156137f257600080fd5b6000613800858286016134ab565b9250506020613811858286016135c7565b9150509250929050565b60006020828403121561382d57600080fd5b600082013567ffffffffffffffff81111561384757600080fd5b613853848285016134c0565b91505092915050565b60006020828403121561386e57600080fd5b600061387c848285016134ff565b91505092915050565b60006020828403121561389757600080fd5b60006138a584828501613514565b91505092915050565b6000602082840312156138c057600080fd5b60006138ce848285016135c7565b91505092915050565b600080604083850312156138ea57600080fd5b60006138f8858286016135c7565b925050602083013567ffffffffffffffff81111561391557600080fd5b6139218582860161359d565b9150509250929050565b60006139378383613eee565b60208301905092915050565b600061394f8383613f0c565b60208301905092915050565b6139648161472a565b82525050565b600061397582614607565b61397f818561464d565b935061398a836145e2565b8060005b838110156139bb5781516139a2888261392b565b97506139ad83614633565b92505060018101905061398e565b5085935050505092915050565b60006139d382614612565b6139dd818561465e565b93506139e8836145f2565b8060005b83811015613a20576139fd82614954565b613a078882613943565b9750613a1283614640565b9250506001810190506139ec565b5085935050505092915050565b613a368161473c565b82525050565b613a4581614748565b82525050565b613a5c613a5782614748565b6148bd565b82525050565b6000613a6d8261461d565b613a778185614669565b9350613a878185602086016147c4565b613a9081614967565b840191505092915050565b6000613aa682614628565b613ab0818561467a565b9350613ac08185602086016147c4565b613ac981614967565b840191505092915050565b6000613ae160188361467a565b9150613aec82614985565b602082019050919050565b6000613b04600f8361467a565b9150613b0f826149ae565b602082019050919050565b6000613b27601f8361467a565b9150613b32826149d7565b602082019050919050565b6000613b4a601f8361467a565b9150613b5582614a00565b602082019050919050565b6000613b6d602b8361467a565b9150613b7882614a29565b604082019050919050565b6000613b9060328361467a565b9150613b9b82614a78565b604082019050919050565b6000613bb360268361467a565b9150613bbe82614ac7565b604082019050919050565b6000613bd660258361467a565b9150613be182614b16565b604082019050919050565b6000613bf9601c8361467a565b9150613c0482614b65565b602082019050919050565b6000613c1c600e8361467a565b9150613c2782614b8e565b602082019050919050565b6000613c3f60028361468b565b9150613c4a82614bb7565b600282019050919050565b6000613c62603f8361467a565b9150613c6d82614be0565b604082019050919050565b6000613c85601a8361467a565b9150613c9082614c2f565b602082019050919050565b6000613ca860248361467a565b9150613cb382614c58565b604082019050919050565b6000613ccb60198361467a565b9150613cd682614ca7565b602082019050919050565b6000613cee60228361467a565b9150613cf982614cd0565b604082019050919050565b6000613d11602c8361467a565b9150613d1c82614d1f565b604082019050919050565b6000613d3460298361467a565b9150613d3f82614d6e565b604082019050919050565b6000613d5760228361467a565b9150613d6282614dbd565b604082019050919050565b6000613d7a603e8361467a565b9150613d8582614e0c565b604082019050919050565b6000613d9d60208361467a565b9150613da882614e5b565b602082019050919050565b6000613dc060198361467a565b9150613dcb82614e84565b602082019050919050565b6000613de360208361467a565b9150613dee82614ead565b602082019050919050565b6000613e0660208361467a565b9150613e1182614ed6565b602082019050919050565b6000613e2960188361467a565b9150613e3482614eff565b602082019050919050565b6000613e4c60218361467a565b9150613e5782614f28565b604082019050919050565b6000613e6f601e8361467a565b9150613e7a82614f77565b602082019050919050565b6000613e92602c8361467a565b9150613e9d82614fa0565b604082019050919050565b6000613eb560208361467a565b9150613ec082614fef565b602082019050919050565b6000613ed8602e8361467a565b9150613ee382615018565b604082019050919050565b613ef78161479e565b82525050565b613f068161479e565b82525050565b613f158161479e565b82525050565b613f24816147a8565b82525050565b6000613f3682846139c8565b915081905092915050565b6000613f4c82613c32565b9150613f588285613a4b565b602082019150613f688284613a4b565b6020820191508190509392505050565b6000602082019050613f8d600083018461395b565b92915050565b6000608082019050613fa8600083018761395b565b613fb5602083018661395b565b613fc26040830185613efd565b8181036060830152613fd48184613a62565b905095945050505050565b60006020820190508181036000830152613ff9818461396a565b905092915050565b60006020820190506140166000830184613a2d565b92915050565b60006020820190506140316000830184613a3c565b92915050565b600060808201905061404c6000830187613a3c565b614059602083018661395b565b6140666040830185613a3c565b6140736060830184613efd565b95945050505050565b600060a0820190506140916000830188613a3c565b61409e6020830187613a3c565b6140ab6040830186613a3c565b6140b86060830185613efd565b6140c5608083018461395b565b9695505050505050565b60006080820190506140e46000830187613a3c565b6140f16020830186613f1b565b6140fe6040830185613a3c565b61410b6060830184613a3c565b95945050505050565b6000602082019050818103600083015261412e8184613a9b565b905092915050565b6000602082019050818103600083015261414f81613ad4565b9050919050565b6000602082019050818103600083015261416f81613af7565b9050919050565b6000602082019050818103600083015261418f81613b1a565b9050919050565b600060208201905081810360008301526141af81613b3d565b9050919050565b600060208201905081810360008301526141cf81613b60565b9050919050565b600060208201905081810360008301526141ef81613b83565b9050919050565b6000602082019050818103600083015261420f81613ba6565b9050919050565b6000602082019050818103600083015261422f81613bc9565b9050919050565b6000602082019050818103600083015261424f81613bec565b9050919050565b6000602082019050818103600083015261426f81613c0f565b9050919050565b6000602082019050818103600083015261428f81613c55565b9050919050565b600060208201905081810360008301526142af81613c78565b9050919050565b600060208201905081810360008301526142cf81613c9b565b9050919050565b600060208201905081810360008301526142ef81613cbe565b9050919050565b6000602082019050818103600083015261430f81613ce1565b9050919050565b6000602082019050818103600083015261432f81613d04565b9050919050565b6000602082019050818103600083015261434f81613d27565b9050919050565b6000602082019050818103600083015261436f81613d4a565b9050919050565b6000602082019050818103600083015261438f81613d6d565b9050919050565b600060208201905081810360008301526143af81613d90565b9050919050565b600060208201905081810360008301526143cf81613db3565b9050919050565b600060208201905081810360008301526143ef81613dd6565b9050919050565b6000602082019050818103600083015261440f81613df9565b9050919050565b6000602082019050818103600083015261442f81613e1c565b9050919050565b6000602082019050818103600083015261444f81613e3f565b9050919050565b6000602082019050818103600083015261446f81613e62565b9050919050565b6000602082019050818103600083015261448f81613e85565b9050919050565b600060208201905081810360008301526144af81613ea8565b9050919050565b600060208201905081810360008301526144cf81613ecb565b9050919050565b60006020820190506144eb6000830184613efd565b92915050565b60006060820190506145066000830186613efd565b6145136020830185613efd565b81810360408301526145258184613a9b565b9050949350505050565b600061453961454a565b90506145458282614843565b919050565b6000604051905090565b600067ffffffffffffffff82111561456f5761456e614925565b5b602082029050602081019050919050565b600067ffffffffffffffff82111561459b5761459a614925565b5b6145a482614967565b9050602081019050919050565b600067ffffffffffffffff8211156145cc576145cb614925565b5b6145d582614967565b9050602081019050919050565b6000819050602082019050919050565b60008190508160005260206000209050919050565b600081519050919050565b600081549050919050565b600081519050919050565b600081519050919050565b6000602082019050919050565b6000600182019050919050565b600082825260208201905092915050565b600081905092915050565b600082825260208201905092915050565b600082825260208201905092915050565b600081905092915050565b60006146a18261479e565b91506146ac8361479e565b9250827fffffffffffffffffffffffffffffffffffffffffffffffffffffffffffffffff038211156146e1576146e06148c7565b5b828201905092915050565b60006146f78261479e565b91506147028361479e565b925082821015614715576147146148c7565b5b828203905092915050565b6000819050919050565b60006147358261477e565b9050919050565b60008115159050919050565b6000819050919050565b60007fffffffff0000000000000000000000000000000000000000000000000000000082169050919050565b600073ffffffffffffffffffffffffffffffffffffffff82169050919050565b6000819050919050565b600060ff82169050919050565b82818337600083830152505050565b60005b838110156147e25780820151818401526020810190506147c7565b838111156147f1576000848401525b50505050565b6000600282049050600182168061480f57607f821691505b60208210811415614823576148226148f6565b5b50919050565b600061483c61483783614978565b614720565b9050919050565b61484c82614967565b810181811067ffffffffffffffff8211171561486b5761486a614925565b5b80604052505050565b600061487f8261479e565b91507fffffffffffffffffffffffffffffffffffffffffffffffffffffffffffffffff8214156148b2576148b16148c7565b5b600182019050919050565b6000819050919050565b7f4e487b7100000000000000000000000000000000000000000000000000000000600052601160045260246000fd5b7f4e487b7100000000000000000000000000000000000000000000000000000000600052602260045260246000fd5b7f4e487b7100000000000000000000000000000000000000000000000000000000600052604160045260246000fd5b60006149608254614829565b9050919050565b6000601f19601f8301169050919050565b60008160001c9050919050565b7f45434453413a20696e76616c6964207369676e61747572650000000000000000600082015250565b7f496e76616c696420616464726573730000000000000000000000000000000000600082015250565b7f45434453413a20696e76616c6964207369676e6174757265206c656e67746800600082015250565b7f55524920717565727920666f72206e6f6e6578697374656e7420746f6b656e00600082015250565b7f455243373231456e756d657261626c653a206f776e657220696e646578206f7560008201527f74206f6620626f756e6473000000000000000000000000000000000000000000602082015250565b7f4552433732313a207472616e7366657220746f206e6f6e20455243373231526560008201527f63656976657220696d706c656d656e7465720000000000000000000000000000602082015250565b7f4f776e61626c653a206e6577206f776e657220697320746865207a65726f206160008201527f6464726573730000000000000000000000000000000000000000000000000000602082015250565b7f4552433732313a207472616e736665722066726f6d20696e636f72726563742060008201527f6f776e6572000000000000000000000000000000000000000000000000000000602082015250565b7f4552433732313a20746f6b656e20616c7265616479206d696e74656400000000600082015250565b7f696e76616c6964207369676e6572000000000000000000000000000000000000600082015250565b7f1901000000000000000000000000000000000000000000000000000000000000600082015250565b7f796f7520617265206e6f7420617661696c61626c6520746f206d696e742c206f60008201527f7220796f752068617665206d696e74656420616c6c206c6576656c2053425400602082015250565b7f796f752068617665206d696e7465642074686973206c6576656c000000000000600082015250565b7f4552433732313a207472616e7366657220746f20746865207a65726f2061646460008201527f7265737300000000000000000000000000000000000000000000000000000000602082015250565b7f4552433732313a20617070726f766520746f2063616c6c657200000000000000600082015250565b7f45434453413a20696e76616c6964207369676e6174757265202773272076616c60008201527f7565000000000000000000000000000000000000000000000000000000000000602082015250565b7f6e65772067726164654c696e65206973206c6f776572207468616e207468652060008201527f70726576696f7573206f6e650000000000000000000000000000000000000000602082015250565b7f4552433732313a2061646472657373207a65726f206973206e6f74206120766160008201527f6c6964206f776e65720000000000000000000000000000000000000000000000602082015250565b7f45434453413a20696e76616c6964207369676e6174757265202776272076616c60008201527f7565000000000000000000000000000000000000000000000000000000000000602082015250565b7f4552433732313a20617070726f76652063616c6c6572206973206e6f7420746f60008201527f6b656e206f776e6572206e6f7220617070726f76656420666f7220616c6c0000602082015250565b7f4552433732313a206d696e7420746f20746865207a65726f2061646472657373600082015250565b7f455342543a20544f4b454e20495320534f554c20424f554e4400000000000000600082015250565b7f4f776e61626c653a2063616c6c6572206973206e6f7420746865206f776e6572600082015250565b7f6163636f756e7420686173206d696e74656420616c6c206c6576656c20534254600082015250565b7f4552433732313a20696e76616c696420746f6b656e2049440000000000000000600082015250565b7f4552433732313a20617070726f76616c20746f2063757272656e74206f776e6560008201527f7200000000000000000000000000000000000000000000000000000000000000602082015250565b7f74686520746172676574206c6576656c20697320696e6578697374656e740000600082015250565b7f455243373231456e756d657261626c653a20676c6f62616c20696e646578206f60008201527f7574206f6620626f756e64730000000000000000000000000000000000000000602082015250565b7f746865206c656e677468206f66206e65775552497320697320696e76616c6964600082015250565b7f4552433732313a2063616c6c6572206973206e6f7420746f6b656e206f776e6560008201527f72206e6f7220617070726f766564000000000000000000000000000000000000602082015250565b6150708161472a565b811461507b57600080fd5b50565b6150878161473c565b811461509257600080fd5b50565b61509e81614752565b81146150a957600080fd5b50565b6150b58161479e565b81146150c057600080fd5b5056fea264697066735822122021f6cb34ab53fe2dcc40ec4ecc6abebdf8f2794ca8da0844e3e99d3739e208e864736f6c63430008040033",
  "linkReferences": {},
  "deployedLinkReferences": {}
}